:020000040800F2
:1000000000000220F1240008692300086F23000883
:10001000752300087B2300088123000800000000EE
:10002000000000000000000000000000872300081E
:100030009523000800000000A3230008B123000856
:1000400041250008412500084125000841250008F8
:10005000412500080D2400081B240008292400085D
:1000600041250008412500084125000841250008D8
:1000700041250008412500084125000841250008C8
:1000800041250008412500084125000841250008B8
:1000900041250008412500084125000841250008A8
:1000A0004125000841250008412500084125000898
:1000B0003924000841250008412500084125000891
:1000C0004125000841250008412500084125000878
:1000D00041250008412500084D240008412500085D
:1000E0004125000841250008412500084125000858
:1000F0004125000841250008412500084125000848
:100100004125000841250008412500084125000837
:100110004125000841250008412500084125000827
:100120004125000841250008412500084125000817
:100130004125000841250008412500084125000807
:1001400041250008412500084125000841250008F7
:1001500041250008412500084125000841250008E7
:1001600041250008412500084125000841250008D7
:100170004125000841250008412500080000000035
:0801800041250008412500089B
:1001900010B5054C237833B9044B13B10448AFF3C1
:1001A00000800123237010BD6400002000000000C7
:1001B000E065000808B5034B1BB103490348AFF3E2
:1001C000008008BD0000000068000020E065000815
:1001D00001F0FF01102A2BDB10F0070F08D010F8F8
:1001E000013B013A8B422DD010F0070F42B3F6D1FC
:1001F000F0B441EA012141EA014122F007047FF015
:1002000000070023F0E80256083C85EA010586EA6B
:10021000010685FA47F5A3FA87F586FA47F6A5FAA7
:1002200087F68EB9EED1F0BC01F0FF0102F00702B3
:1002300032B110F8013B013A83EA010313B1F8D15E
:100240000020704701387047002D06BF354603383F
:10025000073815F0010F07D1013015F4807F02BF78
:10026000013015F4C03F0130F0BC0138704700BFC9
:1002700053B94AB9002908BF00281CBF4FF0FF310D
:100280004FF0FF3000F070B9ADF1080C6DE904CE0D
:1002900000F006F8DDF804E0DDE9022304B0704761
:1002A0002DE9F047089E0D4604460F46002B4AD123
:1002B0008A42944665D9B2FA82F343B102FA03FC4A
:1002C000C3F120029F4020FA02F217439C404FEAFC
:1002D0001C4E1FFA8CF5B7FBFEF1220C0EFB1177BA
:1002E00042EA074201FB05F090420AD91CEB0202E8
:1002F00001F1FF3780F01C81904240F219810239F0
:100300006244121AA4B2B2FBFEF00EFB102244EAC1
:10031000024400FB05F5A5420AD91CEB040400F1D8
:10032000FF3280F00781A54240F204816444023824
:1003300040EA0140641B00211EB1DC400023C6E9F5
:100340000043BDE8F0878B4208D9002E00F0ED8015
:100350000021C6E900050846BDE8F087B3FA83F13D
:10036000002949D1AB4202D3824200F2F880841ABC
:1003700065EB030201201746002EE2D0C6E90047D4
:10038000DFE702B9FFDEB2FA82F3002B40F0908083
:100390008A1A4FEA1C471FFA8CFE0121B2FBF7F5BF
:1003A00007FB1520220C42EA00420EFB05F09042AA
:1003B00008D91CEB020205F1FF3802D2904200F28C
:1003C000CB804546121AA4B2B2FBF7F007FB10220D
:1003D00044EA02440EFB00FEA64508D91CEB0404C7
:1003E00000F1FF3202D2A64500F2BB801046A4EB1A
:1003F0000E0440EA05409FE7C1F120078B4022FA36
:1004000007FC4CEA030C05FA01F420FA07F3FD405F
:100410004FEA1C492343B5FBF9F81FFA8CFE09FB90
:1004200018551C0C44EA054408FB0EF5A54202FAD7
:1004300001F200FA01F00BD91CEB040408F1FF3AB9
:1004400080F08880A54240F28580A8F102086444CB
:10045000641B9DB2B4FBF9F309FB134445EA044461
:1004600003FB0EFEA64508D91CEB040403F1FF357F
:100470006CD2A6456AD9023B644443EA0843A3FB15
:100480000295A4EB0E04AC42C846AE4656D353D0F8
:1004900056B1B0EB080264EB0E0404FA07F7CA4049
:1004A000CC401743C6E9007418460021BDE8F08728
:1004B000C3F1200102FA03FC20FA01F225FA01F14E
:1004C0009D402A434FEA1C471FFA8CFEB1FBF7F010
:1004D00007FB1015110C41EA054100FB0EF58D429A
:1004E00004FA03F408D91CEB010100F1FF382FD204
:1004F0008D422DD902386144491B92B2B1FBF7F508
:1005000007FB151142EA014205FB0EF1914208D9A1
:100510001CEB020205F1FF3816D2914214D9023DBC
:100520006244521A45EA004138E73146304608E74E
:100530003946E6E61046FBE64845A9D2B9EB020883
:1005400065EB0C0E013BA3E74546EAE72B4694E733
:100550004046D1E7D0467BE7023D624432E7084699
:100560000AE76444023842E7704700BF80B483B0B2
:1005700000AF78607B681B685B6A0F4A13600E4BA4
:100580001B681AB20D4B1A800C4BB3F90030DA0F0E
:1005900013445B101AB20A4B1A80084BB3F90030AF
:1005A000DA0F13445B101AB2064B1A8000BF0C37E7
:1005B000BD465DF8047B70475403002058030020BB
:1005C000840300208603002080B582B000AF03467C
:1005D000FB80FB88012B22D14FF48051124802F09E
:1005E000A0FB124B1B68002B16D1104B01221A6086
:1005F0004FF0804300225A620D4B00221A800D4BAF
:1006000000221A800C4B00221A800C4B00221A8008
:100610000B4B00221A6002E0044B00221A6000BF5C
:100620000837BD4680BD00BF0000024060030020C7
:100630005A03002084030020B00700208603002016
:100640006403002080B500AF0821084803F048FA91
:100650000C21064803F044FA0821054803F040FA4B
:100660000C21034803F03CFA00BF80BDAC01002020
:10067000D400002080B400AF0A4B1B680022DA636C
:10068000084B1B6800221A64074B1B680022DA63C0
:10069000054B1B6800221A6400BFBD465DF8047B51
:1006A000704700BFAC010020D400002080B483B0AC
:1006B00000AF0346FB71FB79002B08D00B4B1B6886
:1006C0000022DA630A4B1B680022DA6307E0074B5B
:1006D0001B6800221A64064B1B6800221A6400BFC4
:1006E0000C37BD465DF8047B704700BFAC010020AD
:1006F000D400002080B582B000AF78600120FFF701
:10070000D5FF0B4B1B687A681A640A4B1B687A6822
:100710001A647A680849094805F0BEFA074A1421A4
:10072000002001F091FA00BF0837BD4680BD00BF30
:10073000AC010020D4000020F86500087003002000
:1007400080B582B000AF78600020FFF7AFFF0B4BA1
:100750001B687A68DA630A4B1B687A68DA637A681E
:100760000849094805F098FA074A1421002001F0C9
:100770006BFA00BF0837BD4680BD00BFAC0100204A
:10078000D4000020046600087003002080B500AF8C
:10079000954BB3F90030002BB8BF5B429BB2022BE4
:1007A00040F21F81914BB3F900301A464FF4B473F5
:1007B00002FB03F38E4A82FB03129211DB17D31A5A
:1007C0001AB28C4B1A808C4BB3F900309AB2894B19
:1007D000B3F900309BB2D31A9BB21AB2824B1A8083
:1007E000814BB3F900301A468449854805F054FA24
:1007F0004FF0FF330E228249824804F086FA824B82
:10080000B3F900301A4681497D4805F045FA4FF0AA
:10081000FF330E227A497B4804F077FA724BB3F922
:100820000030002B03DD7A4B00221A8002E0784B67
:1008300001221A8001F0ECFE03461A46754B1A603D
:10084000744B1A68744B1B68D31A744A1360714B4B
:100850001B68714A1360644BB3F900301A466F4B42
:100860001B6803FB02F26E4B1B6813446C4A136057
:100870005D4BB3F900301A466A4B1B68D31A6A4ABB
:100880001360594BB3F900301A46664B1A60664B39
:100890001B684FF47A7203FB02F2604B1B6892FBF9
:1008A000F3F3624A1360504BB3F900301A46564BCB
:1008B000B3F9003002FB03F307EE903AB8EEE77AA3
:1008C000574B1B6807EE903AF8EEE76A584BD3EDAA
:1008D000007A66EEA76A9FED576AC6EE867A77EED3
:1008E000277AFDEEE77A17EE902A534B1A603E4BBB
:1008F000B3F900301A46444BB3F9003002FB03F35E
:100900004E4A13604C4B1B68002B08DD4C4BB3F96F
:1009100000301A46484B1B681344474A1360464B45
:100920001B68002B07DA444B1B68454AB2F90020CC
:100930009B1A414A1360434BB3F900301A463E4BB1
:100940001B689A4205DA3F4BB3F900301A463A4B1E
:100950001A603D4BB3F900301A46344B1B6803FB59
:1009600002F2354B1B681344334A1360354BB3F91D
:1009700000305A42304B1B689A4205DD314BB3F9C7
:1009800000305B422C4A13602C4B1B681A462F49DF
:100990001B4805F081F94FF0FF331122184919481F
:1009A00004F0B3F9244B1B681A462949144805F092
:1009B00073F94FF0FF3311221149124804F0A5F9E1
:1009C0000F4B0D221A700E4B0A225A704FF0FF3354
:1009D00002220B490B4804F098F9174B1B681BB215
:1009E000FFE7184680BD00BF8A0300208403002073
:1009F000F18FD33D8603002006000020106600081A
:100A000070030020CC020020A8030020206600080C
:100A100088030020A00300209C030020A4030020E2
:100A20008C030020900300209403002098030020F2
:100A3000AC03002000401C46640300206803002033
:100A40000400002002000020AA0300202C660008F9
:100A50003C66000880B500AF754BB3F900301A460C
:100A60004FF4B47302FB03F3724A82FB0312921138
:100A7000DB17D31A1AB2704B1A806F4BB3F90030E0
:100A80001A466E496E4805F007F96D4A0A213C2066
:100A900001F0DAF84FF0FF3305226949694804F0A4
:100AA00034F9674B2C221A704FF0FF33012264494E
:100AB000644804F02AF9644BB3F900301A465F49E0
:100AC0005F4805F0E9F84FF0FF3305225C495D48C7
:100AD00004F01BF95A4B2C221A704FF0FF330122FD
:100AE0005749584804F011F9584BB3F900301A46E9
:100AF0005249534805F0D0F84FF0FF3305225049D2
:100B0000504804F002F94E4B2C221A704FF0FF337C
:100B100001224B494B4804F0F8F84D4B1B681A462C
:100B20004649474805F0B8F84FF0FF3305224449DD
:100B3000444804F0EAF8424A1421282001F084F8DD
:100B40003F4B2C221A704FF0FF3301223C493D48A5
:100B500004F0DBF83F4B1B681A463849384805F06B
:100B60009BF84FF0FF3305223549364804F0CDF8A5
:100B7000334B2C221A704FF0FF3301223049314899
:100B800004F0C3F8344B1B681A462C492C4805F076
:100B900083F84FF0FF33052229492A4804F0B5F8BD
:100BA000274B2C221A704FF0FF330122244925488D
:100BB00004F0ABF8294B1B681A462049204805F081
:100BC0006BF84FF0FF3305221D491E4804F09DF8D5
:100BD0001B4B2C221A704FF0FF3301221849194881
:100BE00004F093F81E4BB3F900301A461D4914481F
:100BF00005F052F84FF0FF3305221149114804F077
:100C000084F80F4A1E21282001F01EF800F0F2FEA1
:100C10000B4B0D221A700A4B0A225A704FF0FF3309
:100C200002220749074804F070F800BF80BD00BFEA
:100C300084030020F18FD33D86030020486600081E
:100C40007003002010030020060000208A0300200B
:100C5000640300208C0300209403002098030020EC
:100C60005A0300204C66000880B586B000AF01F042
:100C700069FC00F0CDF900F0B7FD00F0C7FC00F012
:100C800023FB00F05DFD00F059FA00F083FD00F059
:100C900027FA00F067FC00F0E3FB00F069FB00F0CE
:100CA00005FDFFF7CFFC3C21B34803F087F83C215A
:100CB000B24803F083F8B24BB3F900301A464FF450
:100CC0007A7393FBF2F213461B019B1A9B00AD4A09
:100CD00082FB0312D211DB17D21AAB4B1B6892FBBB
:100CE000F3F31AB2A94B1A8000F0E0FFA84A0521DD
:100CF0000A2000F0A9FFA74A1E21282000F0A4FF27
:100D0000A54B3B613A6932210A2000F09DFFA34ABE
:100D10003B1D07CA03C31A70391D4FF0FF33092268
:100D20009F4803F0F2FF391D4FF0FF3309229D4821
:100D300003F0EBFF00F05EFE40F6B83001F074FC0B
:100D400000F090FE984B00221A60984B00221A8007
:100D5000974B4FF47A721A80954BB3F900309AB2E0
:100D6000924BB3F900309BB2D31A9BB21AB2914B9B
:100D70001A80914B00221A60904B00221A6000F0FA
:100D800071FE8F4A0021002000F05EFF8D4A0A218B
:100D9000002000F059FF8C4A1E21002000F054FF73
:100DA000834BB3F900301A468849894804F074FF30
:100DB000874A00213C2000F047FF864A28210F2067
:100DC00000F042FF844A3221002000F03DFF00F095
:100DD00011FE824B07221A80814B824A1A60824B95
:100DE00002221A80724BB3F90030002B03DD7F4BD7
:100DF00000221A8002E07D4B01221A806A4B0122F8
:100E00001A60FFF71FFC01F003FC03461A46784BFB
:100E10001A60654B1B68002B36D1FFF72BFC4FF493
:100E20008061744801F07DFF6A4A28210F2000F09C
:100E30000BFF714A3221002000F006FF00F0DAFDBE
:100E40006E4B00221A60594B00221A805A4B002226
:100E50001A605A4B00221A60554BB3F900309AB20F
:100E6000524BB3F900309BB2D31A9BB21AB2514B1A
:100E70001A8009E04FF4FA7001F0D6FB01F0C8FBCC
:100E800003461A465A4B1A60474B1B68002BF1D099
:100E9000FFF77CFC03461A46594B1A60534BB3F9D3
:100EA0000030002B05D1564B1B681846FFF748FC55
:100EB00004E0534B1B681846FFF71CFC3D4BB3F98D
:100EC0000030002BB8BF5B429BB2032B22D84B4BA8
:100ED0001B680133494A13604A4BB3F900301A4684
:100EE0004FF4B47302FB03F3264A82FB0312D211C0
:100EF000DB17D31A1AB22D4B1A802D4BB3F90030E1
:100F00009AB22A4BB3F900309BB2D31A9BB21AB2F1
:100F1000284B1A80FFF79EFD384B1B68052B1DDD03
:100F2000FFF7A8FB0023FB7504E0FFF793FDFB7DB3
:100F30000133FB75FB7D312BF7D91B4B00221A6067
:100F40004FF48061304801F0ECFE4FF4FA7001F08C
:100F50006BFB4FF480612C4801F0E3FE1D4A282111
:100F60000F2000F071FE294A3221002000F06CFEB3
:100F700000F040FD4DE700BF1C010020F4010020FF
:100F8000000000207FE0077EA40300205C03002017
:100F900054660008646600086C660008DC66000899
:100FA00010030020CC0200206003002086030020F4
:100FB000060000208A030020900300208C030020FC
:100FC0007C66000888660008946600089C66000835
:100FD00070030020A0660008AC660008A80300208B
:100FE000AC03002000004040AA030020880300203A
:100FF0009C03002000100240BC6600086C03002027
:10100000640300208403002000040240CC66000832
:1010100080B594B000AF07F12003302200211846BC
:1010200004F05AFE07F10C0300221A605A609A601D
:10103000DA601A610023BB60274B1B6C264A43F021
:1010400080531364244B1B6C03F08053BB60BB685C
:1010500000237B60214B1B68204A43F480431360CC
:101060001E4B1B6803F480437B607B6801233B625B
:101070004FF480337B620223BB634FF48003FB6336
:1010800004233B6448237B640223BB640423FB6486
:1010900007F12003184601F0E3FF0346002B01D0BF
:1010A00000F054FC0F23FB6002233B6100237B61B3
:1010B0004FF48053BB610023FB6107F10C03022155
:1010C000184602F045FA0346002B01D000F03EFC22
:1010D00000BF5037BD4680BD003802400070004060
:1010E00080B500AF124B134A1A60114B124A5A6076
:1010F0000F4B00229A600E4B0022DA600C4B4FF42B
:1011000080421A610A4B00225A61094B00229A61FF
:10111000074B0022DA61064B00221A62044801F0F4
:1011200033FE0346002B01D000F010FC00BF80BD51
:101130008000002000580040A086010080B596B0D5
:1011400000AF07F1480300221A605A609A60DA6023
:1011500007F1400300221A605A6007F124030022BD
:101160001A605A609A60DA601A615A619A613B1D8E
:1011700020220021184604F0AFFD514B514A1A605D
:101180004F4B00225A604E4B00229A604C4B41F666
:101190001F42DA604A4B00221A61494B00225A6111
:1011A000474B00229A61464802F0F2FB0346002BAF
:1011B00001D000F0CBFB4FF48053BB6407F1480330
:1011C00019463F4803F072F80346002B01D000F0A7
:1011D000BDFB3B4802F02BFC0346002B01D000F086
:1011E000B5FB00233B6400237B6407F140031946F1
:1011F000334803F05BFC0346002B01D000F0A6FB54
:1012000060237B620023BB620023FB6200233B63FD
:1012100000237B630023BB630023FB6307F12403EC
:1012200000221946264802F07FFF0346002B01D01A
:1012300000F08CFB07F1240304221946204802F039
:1012400073FF0346002B01D000F080FB0223FB62FA
:1012500007F1240308221946194802F065FF0346E6
:10126000002B01D000F072FB07F124030C22194679
:10127000134802F059FF0346002B01D000F066FB33
:1012800000237B600023BB600023FB6000233B61E5
:1012900000237B614FF40053BB6100233B623B1D85
:1012A0001946074803F07EFC0346002B01D000F0EE
:1012B0004DFB034800F048FF00BF5837BD4680BDD6
:1012C000D40000200000014080B58CB000AF07F1D1
:1012D0000C0324220021184604F0FEFC3B1D0022D2
:1012E0001A605A60214B4FF080421A601F4B002257
:1012F0005A601E4B00229A601C4B4FF6FF72DA6058
:101300001A4B00221A61194B00229A610123FB60DB
:1013100000233B6101237B610023BB610023FB6150
:1013200000233B6201237B620023BB620023FB623C
:1013300007F10C0319460D4802F09AFC0346002BF6
:1013400001D000F003FB00237B600023BB603B1D4A
:101350001946064803F0AAFB0346002B01D000F013
:10136000F5FA00BF3037BD4680BD00BF1C0100202C
:1013700080B58EB000AF07F1280300221A605A60D2
:101380009A60DA6007F1200300221A605A603B1D60
:1013900000221A605A609A60DA601A615A619A6192
:1013A0002D4B2E4A1A602C4B4FF434725A602A4B44
:1013B00000229A60284B4FF4FA62DA60264B002232
:1013C0001A61254B00229A61234802F0E1FA034694
:1013D000002B01D000F0BAFA4FF48053BB6207F142
:1013E000280319461C4802F061FF0346002B01D078
:1013F00000F0ACFA184802F01AFB0346002B01D0AB
:1014000000F0A4FA00233B6200237B6207F1200373
:101410001946114803F04AFB0346002B01D000F0A7
:1014200095FA60237B600023BB600023FB600023F0
:101430007B613B1D0C221946074802F075FE0346EE
:10144000002B01D000F082FA034800F07DFE00BFBF
:101450003837BD4680BD00BF640100200004004055
:1014600080B58EB000AF07F1280300221A605A60E1
:101470009A60DA6007F1200300221A605A603B1D6F
:1014800000221A605A609A60DA601A615A619A61A1
:10149000324B334A1A60314B00225A602F4B0022E4
:1014A0009A602E4B41F61F42DA602C4B00221A61E3
:1014B0002A4B00229A61294802F06AFA0346002B5F
:1014C00001D000F043FA4FF48053BB6207F12803C8
:1014D0001946224802F0EAFE0346002B01D000F034
:1014E00035FA1E4802F0A3FA0346002B01D000F0A3
:1014F0002DFA00233B6200237B6207F1200319468B
:10150000164803F0D3FA0346002B01D000F01EFA70
:1015100060237B600023BB600223FB6000237B61B0
:101520003B1D082219460D4802F0FEFD0346002B24
:1015300001D000F00BFA3B1D0C221946074802F0BF
:10154000F3FD0346002B01D000F000FA034800F041
:10155000FBFD00BF3837BD4680BD00BFAC01002099
:101560000008004080B58CB000AF07F10C032422C6
:101570000021184604F0B0FB3B1D00221A605A609F
:10158000204B214A1A601F4B00225A601D4B00223B
:101590009A601C4B4FF6FF72DA601A4B00221A61F8
:1015A000184B00229A610123FB6000233B61012359
:1015B0007B610023BB610023FB6100233B620123AD
:1015C0007B620023BB620023FB6207F10C03194618
:1015D0000C4802F04DFB0346002B01D000F0B6F999
:1015E00000237B600023BB603B1D1946054803F0C8
:1015F0005DFA0346002B01D000F0A8F900BF303798
:10160000BD4680BDF4010020000C004080B586B0CE
:1016100000AF07F1080300221A605A609A60DA608E
:101620003B4600221A605A601E4B1F4A1A601D4B2F
:1016300000225A601B4B00229A601A4B41F61F424F
:10164000DA60184B00221A61164B00225A61154BC2
:1016500000229A61134802F09BF90346002B01D047
:1016600000F074F94FF48053BB6007F1080319468A
:101670000C4802F01BFE0346002B01D000F066F977
:1016800000233B6000237B603B461946054803F07E
:101690000DFA0346002B01D000F058F900BF1837AF
:1016A000BD4680BD3C0200200004014080B588B0EA
:1016B00000AF3B1D00221A605A609A60DA601A611E
:1016C0005A619A611C4B1D4A1A601B4B00225A60DA
:1016D000194B00229A60184B41F61F42DA60164BF4
:1016E00000221A61144B00229A61134802F050F94B
:1016F0000346002B01D000F029F90F4802F097F9BA
:101700000346002B01D000F021F960237B60002309
:10171000BB600023FB6000237B613B1D0022194658
:10172000054802F001FD0346002B01D000F00EF940
:1017300000BF2037BD4680BD840200200048014024
:1017400080B500AF114B124A1A60104B4FF416527D
:101750005A600E4B00229A600C4B0022DA600B4B51
:1017600000221A61094B0C225A61084B00229A612F
:10177000064B0022DA61054803F07AFA0346002B93
:1017800001D000F0E3F800BF80BD00BFCC02002014
:101790000044004080B500AF114B124A1A60104B54
:1017A0004FF4E1325A600E4B00229A600C4B00223B
:1017B000DA600B4B00221A61094B0C225A61084B6C
:1017C00000229A61064B0022DA61054803F050FAC4
:1017D0000346002B01D000F0B9F800BF80BD00BF68
:1017E000100300200048004080B58CB000AF07F126
:1017F0001C0300221A605A609A60DA601A610023A2
:10180000BB614E4B1B6B4D4A43F0800313634B4B44
:101810001B6B03F08003BB61BB6900237B61474BFB
:101820001B6B464A43F001031363444B1B6B03F0ED
:1018300001037B617B6900233B61404B1B6B3F4A8B
:1018400043F0100313633D4B1B6B03F010033B612C
:101850003B690023FB60394B1B6B384A43F00203A2
:101860001363364B1B6B03F00203FB60FB68002322
:10187000BB60324B1B6B314A43F0080313632F4BA1
:101880001B6B03F00803BB60BB6800237B602B4B22
:101890001B6B2A4A43F004031363284B1B6B03F0B2
:1018A00004037B607B6800224FF4F041244801F080
:1018B0001FFA00224FF48851224801F019FA4FF420
:1018C000F043FB6101233B6200237B620023BB6288
:1018D00007F11C0319461A4801F06EF84FF48853BB
:1018E000FB6101233B6200237B620023BB6207F1A3
:1018F0001C031946134801F05FF80323FB614FF402
:1019000088133B6200237B6207F11C0319460E48D3
:1019100001F052F800220021062000F084FF06208A
:1019200000F09DFF00220021072000F07CFF07202F
:1019300000F095FF00BF3037BD4680BD0038024043
:10194000000C0240000002400010024080B400AFD2
:1019500072B600BFFEE7000080B584B000AF03465A
:101960000A46FB711346BB71BB79012B06D10122DC
:101970004FF400611E4801F0BBF905E000224FF46E
:1019800000611B4801F0B4F90023FB7322E0002240
:101990004FF48041164801F0ABF997F90730002B5E
:1019A00006DA01224FF40051114801F0A1F905E0D7
:1019B00000224FF400510E4801F09AF901224FF431
:1019C00080410B4801F094F9FB795B00FB71FB7BD4
:1019D0000133FB73FB7B072BD9D901224FF4006144
:1019E000034801F085F900BF1037BD4680BD00BF38
:1019F000000C024080B582B000AF0023FB7126E0EE
:101A0000FB79503BDBB200211846FFF7A5FF002110
:101A10000020FFF7A1FF00211020FFF79DFF00230A
:101A2000BB710DE0BA79FB790D49D2000A44134429
:101A30001B7801211846FFF78FFFBB790133BB717B
:101A400097F90630002BEDDAFB790133FB71FB7956
:101A5000072BD5D900BF00BF0837BD4680BD00BFEA
:101A6000B003002080B582B000AF0023FB7114E00A
:101A70000023BB710AE0BA79FB790C49D2000A4411
:101A8000134400221A70BB790133BB7197F90630F9
:101A9000002BF0DAFB790133FB71FB79072BE7D9D7
:101AA000FFF7A8FF00BF0837BD4680BDB003002088
:101AB00080B485B000AF0346FB710B46BB71134683
:101AC0007B710023FB7397F90730002B41DBBB7957
:101AD0003F2B3ED8BB79DB08DBB2C3F10703BB73F6
:101AE000BB7903F007037B737B7BC3F10703012200
:101AF00002FA03F3FB737B79002B12D0FA79BB7BDC
:101B00001749D2000A4413441878FA79BB7BF97B51
:101B10000143C8B21249D2000A44134402461A7063
:101B200018E0FA79BB7B0E49D2000A4413441B78B3
:101B30005AB297F90F30DB435BB2134059B2FA79CE
:101B4000BB7BC8B20649D2000A44134402461A704D
:101B500000E000BF1437BD465DF8047B704700BF4E
:101B6000B003002090B585B000AF0446084611468A
:101B70001A462346FB710346BB710B467B71134625
:101B80003B71BB793B737B79203B7B710023BB733B
:101B90004DE03B790C2B0BD17A79B97B2848134661
:101BA0005B0013449B0003440B441B78FB7307E06A
:101BB0007A79BB7B234912010A4413441B78FB73D7
:101BC00000237B732DE097F90F30002B07DA97F88D
:101BD0002020B979FB791846FFF76AFF0CE097F8E7
:101BE0002030002B0CBF01230023DBB21A46B97949
:101BF000FB791846FFF75CFFFB7B5B00FB73BB794F
:101C00000133BB71BA793B7BD21A3B799A4205D139
:101C10003B7BBB71FB790133FB7105E07B7B0133BF
:101C20007B737B7B072BCED9BB7B0133BB73BA7B2A
:101C30003B799A42ADD300BF00BF1437BD4690BD7B
:101C4000E86600085C6B000880B584B002AF03460C
:101C50003A60FB710B46BB711FE0FB797A2B04D90C
:101C60000023FB71BB791033BB71BB793A2B05D9CB
:101C70000023FB71FB79BB71FFF7F4FE3B681A7818
:101C8000B979F879012300930C23FFF76BFFFB79F7
:101C90000833FB713B6801333B603B681B78002BCA
:101CA000DBD100BF00BF0837BD4680BD80B500AFA7
:101CB00001F0AEF9424B1B6F414A23F00103136759
:101CC0003F4B1B6F3E4A23F00403136701F0B4F946
:101CD00000224FF480513B4801F00AF8642000F0E4
:101CE000A3FC01224FF48051364801F001F8002195
:101CF000AE20FFF731FE0021D520FFF72DFE002199
:101D00005020FFF729FE0021A820FFF725FE002123
:101D10003F20FFF721FE0021D320FFF71DFE002109
:101D20000020FFF719FE00214020FFF715FE0021DB
:101D30008D20FFF711FE00211420FFF70DFE00217A
:101D40002020FFF709FE00210220FFF705FE0021F9
:101D5000A120FFF701FE0021C020FFF7FDFD0021BB
:101D6000DA20FFF7F9FD00211220FFF7F5FD002131
:101D70008120FFF7F1FD0021EF20FFF7EDFD0021AD
:101D8000D920FFF7E9FD0021F120FFF7E5FD002153
:101D9000DB20FFF7E1FD00213020FFF7DDFD002112
:101DA000A420FFF7D9FD0021A620FFF7D5FD0021D3
:101DB000AF20FFF7D1FDFFF755FE00BF80BD00BF8C
:101DC00000380240000C024080B582B000AF002312
:101DD0007B60174B5B6C164A43F480435364144B8F
:101DE0005B6C03F480437B607B6800233B60104B9B
:101DF0001B6C0F4A43F0805313640D4B1B6C03F0B4
:101E000080533B603B6800220021052000F00BFD61
:101E1000052000F024FD00220021052000F003FD34
:101E2000052000F01CFD00BF0837BD4680BD00BF87
:101E30000038024080B58AB000AF786007F1140323
:101E400000221A605A609A60DA601A617B681B6827
:101E5000194A93422CD100233B61184B1B6B174A44
:101E600043F002031363154B1B6B03F002033B614A
:101E70003B694FF440637B611223BB610023FB612C
:101E800003233B6204237B6207F1140319460C48C9
:101E900000F092FD0023FB60084B1B6C074A43F4E3
:101EA00080031364054B1B6C03F48003FB60FB6829
:101EB00000BF2837BD4680BD0058004000380240B2
:101EC0000004024080B58EB000AF786007F12403B3
:101ED00000221A605A609A60DA601A617B681B6897
:101EE000414A93422DD100233B62404B5B6C3F4AF9
:101EF00043F0010353643D4B5B6C03F001033B6211
:101F00003B6A0023FB61394B1B6B384A43F01003DB
:101F10001363364B1B6B03F01003FB61FB694FF43B
:101F200020637B620223BB620023FB6200233B63CE
:101F300001237B6307F1240319462D4800F03CFD83
:101F40004EE07B681B682B4A93420ED10023BB6195
:101F5000264B1B6C254A43F002031364234B1B6C76
:101F600003F00203BB61BB693AE07B681B68224A4D
:101F700093420ED100237B611C4B1B6C1B4A43F028
:101F800004031364194B1B6C03F004037B617B692E
:101F900026E07B681B68194A93420ED100233B61FF
:101FA000124B5B6C114A43F0020353640F4B5B6CA2
:101FB00003F002033B613B6912E07B681B68104A37
:101FC00093420DD10023FB60084B5B6C074A43F43E
:101FD00080235364054B5B6C03F48023FB60FB6838
:101FE00000BF3837BD4680BD0000014000380240C8
:101FF00000100240000400400008004000040140BE
:102000000048014080B58CB000AF786007F11C0338
:1020100000221A605A609A60DA601A617B681B6855
:10202000B3F1804F53D10023BB61434B1B6C424A39
:1020300043F001031364404B1B6C03F00103BB61CD
:10204000BB6900237B613C4B1B6B3B4A43F00103A4
:102050001363394B1B6B03F001037B617B69002326
:102060003B61354B1B6B344A43F002031363324B25
:102070001B6B03F002033B613B694FF40043FB61C0
:1020800002233B6200237B620023BB620123FB62CD
:1020900007F11C031946294800F08EFC0823FB6158
:1020A00002233B6200237B620023BB620123FB62AD
:1020B00007F11C031946224800F07EFC0022002193
:1020C0001C2000F0B0FB1C2000F0C9FB30E07B6856
:1020D0001B681C4A93422BD10023FB60164B1B6CE0
:1020E000154A43F008031364134B1B6C03F00803F9
:1020F000FB60FB680023BB600F4B1B6B0E4A43F079
:10210000010313630C4B1B6B03F00103BB60BB6843
:102110000323FB6102233B6200237B620023BB623B
:102120000223FB6207F11C031946044800F044FC3B
:1021300000BF3037BD4680BD00380240000002407D
:1021400000040240000C004080B58AB000AF786007
:1021500007F1140300221A605A609A60DA601A616B
:102160007B681B68374A93421FD100233B61364B83
:102170001B6B354A43F010031363334B1B6B03F0A7
:1021800010033B613B694FF4C0437B610223BB6199
:102190000023FB6100233B6201237B6207F11403F0
:1021A00019462A4800F008FC48E07B681B68284A6A
:1021B00093421FD10023FB60234B1B6B224A43F049
:1021C00004031363204B1B6B03F00403FB60FB68E9
:1021D0004FF400737B610223BB610023FB6100238A
:1021E0003B6202237B6207F114031946194800F091
:1021F000E3FB23E07B681B68174A93421ED1002350
:10220000BB60114B1B6B104A43F0020313630E4B70
:102210001B6B03F00203BB60BB684FF440737B6130
:102220000223BB610023FB6100233B6202237B622C
:1022300007F114031946094800F0BEFB00BF283718
:10224000BD4680BD00000140003802400010024041
:102250000004004000080240000800400004024062
:1022600080B58CB000AF786007F11C0300221A60C3
:102270005A609A60DA601A617B681B68364A93423A
:1022800034D10023BB61354B1B6C344A43F400331B
:102290001364324B1B6C03F40033BB61BB69002336
:1022A0007B612E4B1B6B2D4A43F0080313632B4BB2
:1022B0001B6B03F008037B617B696023FB610223D6
:1022C0003B6200237B620323BB620723FB6207F1AF
:1022D0001C031946224800F06FFB00220021262033
:1022E00000F0A1FA262000F0BAFA31E07B681B6802
:1022F0001C4A93422CD100233B61184B1B6C174A9C
:1023000043F480231364154B1B6C03F480233B615F
:102310003B690023FB60114B1B6B104A43F0080321
:1023200013630E4B1B6B03F00803FB60FB684FF459
:102330004073FB6102233B6200237B620323BB6289
:102340000723FB6207F11C031946054800F034FB24
:1023500000BF3037BD4680BD004400400038024019
:10236000000C02400048004080B400AFFEE780B49B
:1023700000AFFEE780B400AFFEE780B400AFFEE739
:1023800080B400AFFEE780B400AF00BFBD465DF88B
:10239000047B704780B400AF00BFBD465DF8047B8E
:1023A000704780B400AF00BFBD465DF8047B704746
:1023B00080B500AF104B1B6801330F4A13600E4B02
:1023C0001A680E4B1B689A4211D10D4BB3F90030BD
:1023D0001A460C4BB3F90030D31A0B4A1360084B62
:1023E000B3F90020074B1A80034B00221A6000F05B
:1023F000FBF800BF80BD00BFB40700200000002034
:1024000084030020B00700205A03002080B400AFEE
:1024100000BFBD465DF8047B704780B500AF01206A
:1024200000F09AFC00BF80BD80B500AF022000F034
:1024300093FC00BF80BD000080B500AF024801F0F2
:102440006BFD00BF80BD00BF1C01002080B500AF48
:10245000024802F0EDFC00BF80BD00BFCC020020AE
:1024600080B586B000AF7860144A154BD31A7B61F3
:102470007B693B61134B1B68002B02D1114B124A45
:102480001A60104B1A687B6813443A699A4207D263
:1024900003F02AFC03460C221A604FF0FF3309E0D8
:1024A000084B1B68FB60074B1A687B681344054A9E
:1024B0001360FB6818461837BD4680BD0000022037
:1024C00000040000B80700200809002080B400AF15
:1024D000064BD3F88830054A43F47003C2F88830BD
:1024E00000BFBD465DF8047B704700BF00ED00E013
:1024F000DFF834D00D480E490E4A002302E0D458CC
:10250000C4500433C4188C42F9D30B4A0B4C00233B
:1025100001E013600432A242FBD3FFF7D7FF03F0C0
:10252000E9FBFEF7A1FB704700000220000000203D
:1025300064000020A8710008640000200809002041
:10254000FEE7000080B500AF0E4B1B680D4A43F458
:10255000007313600B4B1B680A4A43F480631360DB
:10256000084B1B68074A43F480731360032000F094
:102570004FF90F2000F008F8FFF726FC002318465B
:1025800080BD00BF003C024080B582B000AF7860E3
:10259000124B1A68124B1B7819464FF47A73B3FB2F
:1025A000F1F3B2FBF3F3184600F067F90346002B92
:1025B00001D001230EE07B680F2B0AD80022796836
:1025C0004FF0FF3000F02FF9064A7B6813600023BC
:1025D00000E0012318460837BD4680BD08000020F2
:1025E000100000200C00002080B400AF064B1B78C8
:1025F0001A46064B1B681344044A136000BFBD46CD
:102600005DF8047B704700BF10000020BC0700206D
:1026100080B400AF034B1B681846BD465DF8047BD1
:10262000704700BFBC07002080B584B000AF786061
:10263000FFF7EEFFB8607B68FB60FB68B3F1FF3F1C
:1026400005D00A4B1B781A46FB681344FB6000BF99
:10265000FFF7DEFF0246BB68D31AFA689A42F7D842
:1026600000BF00BF1037BD4680BD00BF1000002076
:1026700080B485B000AF78607B6803F00703FB602F
:102680000C4BDB68BB60BA684FF6FF031340BB60BE
:10269000FB681A02BB68134343F0BF6343F4003383
:1026A000BB60044ABB68D36000BF1437BD465DF809
:1026B000047B704700ED00E080B400AF044BDB68A2
:1026C0001B0A03F007031846BD465DF8047B7047FC
:1026D00000ED00E080B483B000AF0346FB7197F9D2
:1026E0000730002B0BDBFB7903F01F02074997F93A
:1026F00007305B09012000FA02F241F8232000BFF5
:102700000C37BD465DF8047B704700BF00E100E078
:1027100080B483B000AF03463960FB7197F907308E
:10272000002B0ADB3B68DAB20C4997F9073012013B
:10273000D2B20B4483F800230AE03B68DAB20849BE
:10274000FB7903F00F03043B1201D2B20B441A765B
:1027500000BF0C37BD465DF8047B704700E100E028
:1027600000ED00E080B489B000AFF860B9607A6035
:10277000FB6803F00703FB61FB69C3F10703042B4C
:1027800028BF0423BB61FB690433062B02D9FB6914
:10279000033B00E000237B614FF0FF32BB6902FA8C
:1027A00003F3DA43BB681A407B699A404FF0FF316C
:1027B0007B6901FA03F3D9437B680B401343184646
:1027C0002437BD465DF8047B7047000080B582B0B9
:1027D00000AF78607B68013BB3F1807F01D30123B8
:1027E0000FE00A4A7B68013B53600F214FF0FF3036
:1027F000FFF78EFF054B00229A60044B07221A60F8
:10280000002318460837BD4680BD00BF10E000E039
:1028100080B582B000AF78607868FFF729FF00BF0D
:102820000837BD4680BD80B586B000AF0346B960AD
:102830007A60FB7300237B61FFF73EFF78617A6863
:10284000B9687869FFF78EFF024697F90F30114695
:102850001846FFF75DFF00BF1837BD4680BD80B545
:1028600082B000AF0346FB7197F907301846FFF7B7
:1028700031FF00BF0837BD4680BD80B582B000AFD4
:1028800078607868FFF7A2FF034618460837BD4610
:1028900080BD80B584B000AF78607B689B6DFB60C5
:1028A000FFF7B6FEB8607B6893F83530DBB2022BD9
:1028B00008D07B6880225A657B68002283F8342028
:1028C000012352E07B681B681A687B681B6822F052
:1028D00016021A607B681B685A697B681B6822F0C5
:1028E00080025A617B681B6C002B03D17B689B6C58
:1028F000002B07D07B681B681A687B681B6822F076
:1029000008021A607B681B681A687B681B6822F0E3
:1029100001021A6013E0FFF77BFE0246BB68D31A80
:10292000052B0CD97B6820225A657B68032283F82B
:1029300035207B68002283F83420032315E07B6870
:102940001B681B6803F00103002BE4D17B68DB6D7F
:102950003F229A40FB689A607B68012283F8352009
:102960007B68002283F83420002318461037BD46C8
:1029700080BD80B483B000AF78607B6893F8353059
:10298000DBB2022B04D07B6880225A6501230CE065
:102990007B68052283F835207B681B681A687B6892
:1029A0001B6822F001021A60002318460C37BD464E
:1029B0005DF8047B7047000080B489B000AF786098
:1029C000396000237B6100233B610023BB6100234E
:1029D000FB616BE10122FB6902FA03F37B613B6857
:1029E0001B687A6913403B613A697B699A4240F0FF
:1029F0005A813B685B6803F00303012B05D03B68F9
:102A00005B6803F00303022B30D17B689B68BB61DA
:102A1000FB695B00032202FA03F3DB43BA6913404C
:102A2000BB613B68DA68FB695B0002FA03F3BA69D1
:102A30001343BB617B68BA699A607B685B68BB6162
:102A40000122FB6902FA03F3DB43BA691340BB615D
:102A50003B685B681B0903F00102FB6902FA03F3A0
:102A6000BA691343BB617B68BA695A603B685B68AB
:102A700003F00303032B17D07B68DB68BB61FB69A2
:102A80005B00032202FA03F3DB43BA691340BB6124
:102A90003B689A68FB695B0002FA03F3BA69134367
:102AA000BB617B68BA69DA603B685B6803F003036B
:102AB000022B23D1FB69DA087B68083253F82230F5
:102AC000BB61FB6903F007039B000F2202FA03F3CB
:102AD000DB43BA691340BB613B681A69FB6903F0C9
:102AE00007039B0002FA03F3BA691343BB61FB6956
:102AF000DA087B680832B96943F822107B681B68E2
:102B0000BB61FB695B00032202FA03F3DB43BA6992
:102B10001340BB613B685B6803F00302FB695B0029
:102B200002FA03F3BA691343BB617B68BA691A609E
:102B30003B685B6803F44033002B00F0B480002353
:102B4000FB60604B5B6C5F4A43F4804353645D4BB6
:102B50005B6C03F48043FB60FB685B4AFB699B088A
:102B6000023352F82330BB61FB6903F003039B007F
:102B70000F2202FA03F3DB43BA691340BB617B689F
:102B8000524A93422BD07B68514A934225D07B68AE
:102B9000504A93421FD07B684F4A934219D07B68BA
:102BA0004E4A934213D07B684D4A93420DD07B68C6
:102BB0004C4A934207D07B684B4A934201D107238A
:102BC0000EE008230CE006230AE0052308E00423B6
:102BD00006E0032304E0022302E0012300E00023D7
:102BE000FA6902F0030292009340BA691343BB6191
:102BF0003549FB699B080233BA6941F823203B4BF6
:102C00009B68BB613B69DB43BA691340BB613B68AE
:102C10005B6803F48013002B03D0BA693B6913434C
:102C2000BB61324ABB699360304BDB68BB613B6977
:102C3000DB43BA691340BB613B685B6803F4001374
:102C4000002B03D0BA693B691343BB61274ABB69B8
:102C5000D360264B5B68BB613B69DB43BA691340B9
:102C6000BB613B685B6803F40033002B03D0BA6997
:102C70003B691343BB611D4ABB6953601B4B1B6817
:102C8000BB613B69DB43BA691340BB613B685B686E
:102C900003F48033002B03D0BA693B691343BB6153
:102CA000124ABB691360FB690133FB61FB690F2B9F
:102CB0007FF690AE00BF00BF2437BD465DF8047BB1
:102CC000704700BF00380240003801400000024059
:102CD0000004024000080240000C024000100240C4
:102CE0000014024000180240001C0240003C014059
:102CF00080B483B000AF78600B467B8013467B7056
:102D00007B78002B03D07A887B689A6103E07B880C
:102D10001A047B689A6100BF0C37BD465DF8047BDE
:102D2000704780B485B000AF78600B467B807B68CD
:102D30005B69FB607A88FB6813401A04FB68D9431F
:102D40007B880B401A437B689A6100BF1437BD46ED
:102D50005DF8047B7047000080B582B000AF034689
:102D6000FB80084B5A69FB881340002B06D0054AAC
:102D7000FB885361FB881846FDF726FC00BF083727
:102D8000BD4680BD003C014080B584B000AF786096
:102D90007B68002B01D101232BE17B6893F83D3048
:102DA000DBB2002B06D17B68002283F83C207868D8
:102DB000FFF740F87B68242283F83D207B681B687E
:102DC0001A687B681B6822F001021A607B681B6826
:102DD0001A687B681B6842F400421A607B681B68B3
:102DE0001A687B681B6822F400421A6000F0A8FD94
:102DF000F8607B685B68814A934207D8FB68804A29
:102E0000934294BF01230023DBB206E0FB687D4AB6
:102E1000934294BF01230023DBB2002B01D0012396
:102E2000E7E0FB68784AA2FB03239B0CBB607B684E
:102E30001B685B6823F03F017B681B68BA680A4324
:102E40005A607B681B681B6A23F03F017B685B68E4
:102E50006A4A934202D8BB68013309E0BB684FF469
:102E6000967202FB03F3694AA2FB03239B09013319
:102E70007A6812680B4313627B681B68DB6923F472
:102E80004F4222F0FF027B685B685C498B4219D895
:102E9000FB68591E7B685B685B00B1FBF3F3591C50
:102EA00040F6FC730B40002B0AD0FB68591E7B6870
:102EB0005B685B00B1FBF3F30133C3F30B0351E039
:102EC00004234FE07B689B68002B11D1FB68581EE0
:102ED0007B6859680B465B000B44B0FBF3F301338E
:102EE000C3F30B03002B0CBF01230023DBB212E062
:102EF000FB68581E7B6859680B469B000B44990081
:102F00000B44B0FBF3F30133C3F30B03002B0CBFF3
:102F100001230023DBB2002B01D0012322E07B68D8
:102F20009B68002B0ED1FB68581E7B6859680B46C6
:102F30005B000B44B0FBF3F30133C3F30B0343F427
:102F400000430FE0FB68581E7B6859680B469B00E6
:102F50000B4499000B44B0FBF3F30133C3F30B03B1
:102F600043F44043796809681343CB617B681B686D
:102F70001B6823F0C0017B68DA697B681B6A1A430F
:102F80007B681B680A431A607B681B689B6823F494
:102F9000034323F0FF037A6811697A68D26811430A
:102FA0007A6812680B4393607B681B68DB6823F0C8
:102FB000FF017B685A697B689B691A437B681B68C1
:102FC0000A43DA607B681B681A687B681B6842F0FA
:102FD00001021A607B6800221A647B68202283F851
:102FE0003D207B6800221A637B68002283F83E2024
:102FF000002318461037BD4680BD00BFA0860100E3
:103000007F841E00FF083D0083DE1B43D34D62100A
:1030100080B483B000AF064B01221A60054B1B68D9
:103020007B607B6800BF0C37BD465DF8047B704752
:1030300020000E420070004080B483B000AF064B09
:1030400000221A60054B1B687B607B6800BF0C3751
:10305000BD465DF8047B704720000E4200700040C2
:1030600080B586B000AF78607B68002B01D101236A
:1030700067E27B681B6803F00103002B75D0884B67
:103080009B6803F00C03042B0CD0854B9B6803F06A
:103090000C03082B12D1824B5B6803F48003B3F559
:1030A000800F0BD17E4B1B6803F40033002B5BD0E9
:1030B0007B685B68002B57D1012342E27B685B6829
:1030C000B3F5803F06D1764B1B68754A43F48033D5
:1030D00013601DE07B685B68B3F5A02F0CD1704BCB
:1030E0001B686F4A43F4802313606D4B1B686C4A66
:1030F00043F4803313600BE0694B1B68684A23F488
:1031000080331360664B1B68654A23F48023136089
:103110007B685B68002B13D0FFF77AFA386108E010
:10312000FFF776FA02463B69D31A642B01D90323D1
:1031300007E25B4B1B6803F40033002BF0D014E074
:10314000FFF766FA386108E0FFF762FA02463B696A
:10315000D31A642B01D90323F3E1514B1B6803F409
:103160000033002BF0D100E000BF7B681B6803F048
:103170000203002B63D04A4B9B6803F00C03002B27
:103180000BD0474B9B6803F00C03082B1CD1444B1E
:103190005B6803F48003002B16D1414B1B6803F0DE
:1031A0000203002B05D07B68DB68012B01D00123D3
:1031B000C7E13B4B1B6823F0F8027B681B69DB000F
:1031C000374913430B603AE07B68DB68002B20D063
:1031D000344B01221A60FFF71BFA386108E0FFF751
:1031E00017FA02463B69D31A022B01D90323A8E13F
:1031F0002B4B1B6803F00203002BF0D0284B1B68FD
:1032000023F0F8027B681B69DB00254913430B6040
:1032100015E0244B00221A60FFF7FAF9386108E044
:10322000FFF7F6F902463B69D31A022B01D90323B3
:1032300087E11B4B1B6803F00203002BF0D17B6876
:103240001B6803F00803002B36D07B685B69002BFA
:1032500016D0154B01221A60FFF7DAF9386108E041
:10326000FFF7D6F902463B69D31A022B01D9032393
:1032700067E10B4B5B6F03F00203002BF0D01BE008
:10328000094B00221A60FFF7C3F938610EE0FFF71F
:10329000BFF902463B69D31A022B07D9032350E139
:1032A0000038024000004742800E4742884B5B6F67
:1032B00003F00203002BEAD17B681B6803F00403D0
:1032C000002B00F097800023FB75814B1B6C03F0F3
:1032D0008053002B0FD10023BB607D4B1B6C7C4ABD
:1032E00043F0805313647A4B1B6C03F08053BB6034
:1032F000BB680123FB75774B1B6803F48073002BBD
:1033000018D1744B1B68734A43F480731360FFF742
:103310007FF9386108E0FFF77BF902463B69D31A71
:10332000022B01D903230CE16A4B1B6803F4807361
:10333000002BF0D07B689B68012B06D1644B1B6F80
:10334000634A43F0010313671CE07B689B68052B0D
:103350000CD15F4B1B6F5E4A43F0040313675C4B59
:103360001B6F5B4A43F0010313670BE0584B1B6F65
:10337000574A23F001031367554B1B6F544A23F040
:10338000040313677B689B68002B15D0FFF740F997
:1033900038610AE0FFF73CF902463B69D31A41F273
:1033A0008832934201D90323CBE0494B1B6F03F0D2
:1033B0000203002BEED014E0FFF72AF938610AE08F
:1033C000FFF726F902463B69D31A41F2883293424D
:1033D00001D90323B5E03E4B1B6F03F00203002B22
:1033E000EED1FB7D012B05D1394B1B6C384A23F004
:1033F000805313647B689B69002B00F0A180344BE1
:103400009B6803F00C03082B5CD07B689B69022B44
:1034100041D1314B00221A60FFF7FAF8386108E019
:10342000FFF7F6F802463B69D31A022B01D90323B2
:1034300087E0274B1B6803F00073002BF0D17B68FB
:10344000DA697B681B6A1A437B685B6A9B011A43D3
:103450007B689B6A5B08013B1B041A437B68DB6A41
:103460001B061B4913434B601B4B01221A60FFF7DD
:10347000CFF8386108E0FFF7CBF802463B69D31A72
:10348000022B01D903235CE0114B1B6803F000738E
:10349000002BF0D054E0104B00221A60FFF7B8F870
:1034A000386108E0FFF7B4F802463B69D31A022BF3
:1034B00001D9032345E0064B1B6803F00073002B82
:1034C000F0D13DE07B689B69012B07D1012338E0F7
:1034D0000038024000700040600047421B4B5B68B0
:1034E000FB607B689B69012B28D0FB6803F480029A
:1034F0007B68DB699A4221D1FB6803F03F027B685D
:103500001B6A9A421AD1FA6847F6C07313407A6868
:10351000526A9201934211D1FB6803F440327B68F6
:103520009B6A5B08013B1B049A4207D1FB6803F0CE
:1035300070627B68DB6A1B069A4201D0012300E0BF
:10354000002318461837BD4680BD00BF0038024032
:1035500080B584B000AF786039607B68002B01D102
:103560000123CCE0684B1B6803F007033A689A42DA
:103570000CD9654B3A68D2B21A70634B1B6803F0E2
:1035800007033A689A4201D00123B8E07B681B68C0
:1035900003F00203002B20D07B681B6803F00403B8
:1035A000002B05D0594B9B68584A43F4E053936075
:1035B0007B681B6803F00803002B05D0534B9B6806
:1035C000524A43F460439360504B9B6823F0F002EF
:1035D0007B689B684D4913438B607B681B6803F0D5
:1035E0000103002B44D07B685B68012B07D1474B5C
:1035F0001B6803F40033002B19D101237FE07B68A3
:103600005B68022B03D07B685B68032B07D13F4BC1
:103610001B6803F00073002B09D101236FE03B4BC3
:103620001B6803F00203002B01D1012367E0374B35
:103630009B6823F003027B685B68344913438B600B
:10364000FEF7E6FFF8600AE0FEF7E2FF0246FB68DD
:10365000D31A41F28832934201D903234FE02B4B16
:103660009B6803F00C027B685B689B009A42EBD17D
:10367000254B1B6803F007033A689A420CD2224B91
:103680003A68D2B21A70204B1B6803F007033A68FD
:103690009A4201D0012332E07B681B6803F00403E7
:1036A000002B08D0194B9B6823F4E0527B68DB6841
:1036B000164913438B607B681B6803F00803002BDB
:1036C00009D0124B9B6823F460427B681B69DB00C6
:1036D0000E4913438B6000F021F802460B4B9B68A8
:1036E0001B0903F00F030A49CB5C22FA03F3094AD2
:1036F0001360094B1B681846FEF746FF0023184667
:103700001037BD4680BD00BF003C0240003802407B
:103710004C710008080000200C0000202DE9B04F7B
:1037200094B000AF00237B640023FB6400233B6460
:103730000023BB64794B9B6803F00C03082B0DD06E
:10374000082B00F2E180002B02D0042B03D0DBE039
:10375000734BBB64DBE0734BBB64D8E06F4B5B68BF
:1037600003F03F037B646D4B5B6803F48003002B25
:1037700063D06A4B5B689B090022BB63FA63BB6B37
:10378000C3F308033B6300237B63D7E90C45224660
:103790002B464FF000004FF00001590141EAD26181
:1037A000500102460B462146511A3961294663EB06
:1037B00001037B614FF000024FF00003D7E904AB37
:1037C00059468B01514643EA916351468A0151465D
:1037D000B2EB0108594663EB01094FF000024FF0CC
:1037E00000034FEAC90343EA58734FEAC802904600
:1037F0009946234618EB0303BB602B4649EB0303B2
:10380000FB604FF000024FF00003D7E90245294664
:103810004B02214643EAD15321464A02104619463B
:103820007B6C0022BB62FA62D7E90A23FCF720FD19
:1038300002460B461346FB6458E0384B5B689B0915
:10384000002218461146C0F308033B6200237B6246
:10385000D7E9088942464B464FF000004FF000017F
:10386000590141EAD261500102460B464146B2EB92
:10387000010A494663EB010B4FF000024FF00003D1
:103880004FEA8B1343EA9A634FEA8A12B2EB0A04B7
:1038900063EB0B054FF000024FF00003EB0043EA2F
:1038A0005473E20014461D464346E3183B604B4602
:1038B00045EB03037B604FF000024FF00003D7E9B4
:1038C000004529468B02214643EA915321468A024C
:1038D000104619467B6C0022BB61FA61D7E90623CA
:1038E000FCF7C6FC02460B461346FB640B4B5B68B9
:1038F0001B0C03F0030301335B003B64FA6C3B6C6D
:10390000B2FBF3F3BB6402E0054BBB6400BFBB6CCE
:1039100018465037BD46BDE8B08F00BF00380240A2
:103920000024F40000127A0080B400AF034B1B683F
:103930001846BD465DF8047B704700BF08000020B4
:1039400080B500AFFFF7F0FF0246054B9B689B0A6E
:1039500003F007030349CB5C22FA03F3184680BD4A
:10396000003802405C71000880B500AFFFF7DCFF53
:103970000246054B9B685B0B03F007030349CB5CD6
:1039800022FA03F3184680BD003802405C7100083B
:1039900080B582B000AF78607B68002B01D1012335
:1039A00041E07B6893F83D30DBB2002B06D17B68A9
:1039B000002283F83C207868FEF784FA7B680222B4
:1039C00083F83D207B681A687B68043319461046EB
:1039D00000F05CFD7B68012283F846207B680122B1
:1039E00083F83E207B68012283F83F207B68012218
:1039F00083F840207B68012283F841207B68012204
:103A000083F842207B68012283F843207B680122EF
:103A100083F844207B68012283F845207B680122DB
:103A200083F83D20002318460837BD4680BD80B589
:103A300082B000AF78607B68002B01D1012341E0A8
:103A40007B6893F83D30DBB2002B06D17B68002207
:103A500083F83C20786800F039F87B68022283F80C
:103A60003D207B681A687B6804331946104600F0D5
:103A70000DFD7B68012283F846207B68012283F8D4
:103A80003E207B68012283F83F207B68012283F877
:103A900040207B68012283F841207B68012283F863
:103AA00042207B68012283F843207B68012283F84F
:103AB00044207B68012283F845207B68012283F83B
:103AC0003D20002318460837BD4680BD80B483B032
:103AD00000AF786000BF0C37BD465DF8047B7047CF
:103AE00080B584B000AF786039603B68002B09D1A5
:103AF0007B6893F83E30DBB2012B14BF0123002317
:103B0000DBB222E03B68042B09D17B6893F83F309D
:103B1000DBB2012B14BF01230023DBB215E03B68AD
:103B2000082B09D17B6893F84030DBB2012B14BF1E
:103B300001230023DBB208E07B6893F84130DBB25D
:103B4000012B14BF01230023DBB2002B01D0012382
:103B50007CE03B68002B04D17B68022283F83E2086
:103B600013E03B68042B04D17B68022283F83F20DA
:103B70000BE03B68082B04D17B68022283F84020CD
:103B800003E07B68022283F841207B681B680122E6
:103B90003968184600F064FF7B681B682D4A934221
:103BA00004D07B681B682C4A934201D1012300E0BA
:103BB0000023002B07D07B681B685A6C7B681B684E
:103BC00042F400425A647B681B68224A934222D026
:103BD0007B681B68B3F1804F1DD07B681B681F4A50
:103BE000934218D07B681B681D4A934213D07B68B0
:103BF0001B681C4A93420ED07B681B68164A93428E
:103C000009D07B681B68184A934204D07B681B6804
:103C1000164A934211D17B681B689B6803F0070327
:103C2000FB60FB68062B10D07B681B681A687B68FA
:103C30001B6842F001021A6007E07B681B681A6883
:103C40007B681B6842F001021A6000231846103797
:103C5000BD4680BD0000014000040140000400405A
:103C600000080040000C00400040014000180040E7
:103C700080B586B000AF786039607B68002B01D1D9
:103C8000012397E07B6893F83D30DBB2002B06D12F
:103C90007B68002283F83C207868FEF7B3F97B68E4
:103CA000022283F83D207B681B689B687A68126853
:103CB00023F4804323F0070393607B681A687B68D2
:103CC00004331946104600F0E1FB7B681B689B68D3
:103CD0007B617B681B689B693B617B681B681B6A17
:103CE000FB603B681B687A6913437B613B6923F483
:103CF000407323F003033B613B689A683B689B6910
:103D00001B0213433A6913433B613B6923F440634D
:103D100023F00C033B613B6923F4704323F0F00371
:103D20003B613B68DA683B68DB691B0213433A6915
:103D300013433B613B681B691A013B681B6A1B0309
:103D400013433A6913433B61FB6823F02203FB6092
:103D5000FB6823F08803FB603B685A683B685B693B
:103D60001B011343FA681343FB607B681B687A6985
:103D70009A607B681B683A699A617B681B68FA687D
:103D80001A627B68012283F846207B68012283F84F
:103D90003E207B68012283F83F207B68012283F864
:103DA00042207B68012283F843207B68012283F84C
:103DB0003D20002318461837BD4680BD80B584B02D
:103DC00000AF786039607B6893F83E30FB737B68A6
:103DD00093F83F30BB737B6893F842307B737B680A
:103DE00093F843303B733B68002B10D1FB7B012BD6
:103DF00002D17B7B012B01D0012389E07B68022269
:103E000083F83E207B68022283F8422031E03B6841
:103E1000042B10D1BB7B012B02D13B7B012B01D0AA
:103E2000012375E07B68022283F83F207B68022231
:103E300083F843201DE0FB7B012B08D1BB7B012BCA
:103E400005D17B7B012B02D13B7B012B01D00123D0
:103E50005EE07B68022283F83E207B68022283F8C2
:103E60003F207B68022283F842207B68022283F88D
:103E700043203B68002B03D03B68042B10D01FE08D
:103E80007B681B6801220021184600F0E9FD7B6871
:103E90001B68DA687B681B6842F00202DA602EE079
:103EA0007B681B6801220421184600F0D9FD7B685D
:103EB0001B68DA687B681B6842F00402DA601EE067
:103EC0007B681B6801220021184600F0C9FD7B6851
:103ED0001B6801220421184600F0C2FD7B681B68A4
:103EE000DA687B681B6842F00202DA607B681B6854
:103EF000DA687B681B6842F00402DA6000BF7B6806
:103F00001B681A687B681B6842F001021A60002374
:103F100018461037BD4680BD80B582B000AF7860CE
:103F20007B681B681B6903F00203022B22D17B68AC
:103F30001B68DB6803F00203022B1BD17B681B6844
:103F40006FF002021A617B6801221A777B681B6896
:103F50009B6903F00303002B03D07868FCF706FB92
:103F600005E0786800F073FA786800F07AFA7B6808
:103F700000221A777B681B681B6903F00403042B7B
:103F800022D17B681B68DB6803F00403042B1BD180
:103F90007B681B686FF004021A617B6802221A7743
:103FA0007B681B689B6903F44073002B03D078681F
:103FB000FCF7DCFA05E0786800F049FA786800F070
:103FC00050FA7B6800221A777B681B681B6903F034
:103FD0000803082B22D17B681B68DB6803F0080309
:103FE000082B1BD17B681B686FF008021A617B6885
:103FF00004221A777B681B68DB6903F00303002B3C
:1040000003D07868FCF7B2FA05E0786800F01FFA90
:10401000786800F026FA7B6800221A777B681B68B4
:104020001B6903F01003102B22D17B681B68DB682F
:1040300003F01003102B1BD17B681B686FF010027C
:104040001A617B6808221A777B681B68DB6903F4B6
:104050004073002B03D07868FCF788FA05E0786895
:1040600000F0F5F9786800F0FCF97B6800221A7717
:104070007B681B681B6903F00103012B0ED17B6871
:104080001B68DB6803F00103012B07D17B681B6809
:104090006FF001021A61786800F0CFF97B681B6845
:1040A0001B6903F08003802B0ED17B681B68DB68E3
:1040B00003F08003802B07D17B681B686FF08002C0
:1040C0001A61786800F0CAFD7B681B681B6903F001
:1040D0004003402B0ED17B681B68DB6803F0400374
:1040E000402B07D17B681B686FF040021A6178682B
:1040F00000F0C1F97B681B681B6903F02003202BCB
:104100000ED17B681B68DB6803F02003202B07D1EE
:104110007B681B686FF020021A61786800F094FDDC
:1041200000BF0837BD4680BD80B586B000AFF860DF
:10413000B9607A600023FB75FB6893F83C30012B73
:1041400001D10223AEE0FB68012283F83C207B68AA
:104150000C2B00F29F8001A252F823F0914100083D
:10416000954200089542000895420008D141000898
:104170009542000895420008954200081342000845
:1041800095420008954200089542000853420008F5
:10419000FB681B68B968184600F018FAFB681B68D2
:1041A0009A69FB681B6842F008029A61FB681B6809
:1041B0009A69FB681B6822F004029A61FB681B681D
:1041C0009969BB681A69FB681B680A439A6164E0D5
:1041D000FB681B68B968184600F068FAFB681B6842
:1041E0009A69FB681B6842F400629A61FB681B686D
:1041F0009A69FB681B6822F480629A61FB681B68FD
:104200009969BB681B691A02FB681B680A439A61BB
:1042100043E0FB681B68B968184600F0BDFAFB680C
:104220001B68DA69FB681B6842F00802DA61FB6808
:104230001B68DA69FB681B6822F00402DA61FB681C
:104240001B68D969BB681A69FB681B680A43DA6195
:1042500023E0FB681B68B968184600F011FBFB6897
:104260001B68DA69FB681B6842F40062DA61FB686C
:104270001B68DA69FB681B6822F48062DA61FB68FC
:104280001B68D969BB681B691A02FB681B680A4373
:10429000DA6102E00123FB7500BFFB68002283F8AE
:1042A0003C20FB7D18461837BD4680BD80B584B0E4
:1042B00000AF786039600023FB737B6893F83C3073
:1042C000012B01D10223B4E07B68012283F83C205A
:1042D0007B68022283F83D207B681B689B68BB607B
:1042E000BB6823F07703BB60BB6823F47F43BB60EC
:1042F0007B681B68BA689A603B681B68B3F5005F0F
:104300003ED0B3F5005F00F28780B3F5805F00F028
:104310008680B3F5805F7FD8702B1AD0702B7BD846
:10432000602B50D0602B77D8502B3CD0502B73D8BB
:10433000402B58D0402B6FD8302B64D0302B6BD80B
:10434000202B60D0202B67D8002B5CD0102B5AD0AC
:1043500062E07B6818683B6899683B685A683B680C
:10436000DB6800F05DFB7B681B689B68BB60BB681B
:1043700043F07703BB607B681B68BA689A604FE0C4
:104380007B6818683B6899683B685A683B68DB68DB
:1043900000F046FB7B681B689A687B681B6842F4E8
:1043A00080429A603CE07B6818683B6859683B68CB
:1043B000DB681A4600F0BAFA7B681B685021184681
:1043C00000F013FB2CE07B6818683B6859683B6879
:1043D000DB681A4600F0D9FA7B681B686021184632
:1043E00000F003FB1CE07B6818683B6859683B6879
:1043F000DB681A4600F09AFA7B681B684021184671
:1044000000F0F3FA0CE07B681A683B681B681946F9
:10441000104600F0EAFA03E00123FB7300E000BF5E
:104420007B68012283F83D207B68002283F83C20D2
:10443000FB7B18461037BD4680BD80B483B000AF0B
:10444000786000BF0C37BD465DF8047B704780B4D0
:1044500083B000AF786000BF0C37BD465DF8047BC9
:10446000704780B483B000AF786000BF0C37BD46A2
:104470005DF8047B704780B483B000AF786000BF04
:104480000C37BD465DF8047B7047000080B485B0F2
:1044900000AF786039607B681B68FB607B68404ACE
:1044A000934213D07B68B3F1804F0FD07B683D4AB5
:1044B00093420BD07B683C4A934207D07B683B4ACF
:1044C000934203D07B683A4A934208D1FB6823F0B9
:1044D0007003FB603B685B68FA681343FB607B68B2
:1044E0002F4A93422BD07B68B3F1804F27D07B6853
:1044F0002C4A934223D07B682B4A93421FD07B687F
:104500002A4A93421BD07B68294A934217D07B6882
:10451000284A934213D07B68274A93420FD07B6886
:10452000264A93420BD07B68254A934207D07B688A
:10453000244A934203D07B68234A934208D1FB6804
:1045400023F44073FB603B68DB68FA681343FB604D
:10455000FB6823F080023B685B691343FB607B6868
:10456000FA681A603B689A687B68DA623B681A6886
:104570007B689A627B680A4A934203D07B680C4A44
:10458000934203D13B681A697B681A637B680122F6
:104590005A6100BF1437BD465DF8047B704700BF09
:1045A000000001400004004000080040000C0040F2
:1045B0000004014000400140004401400048014027
:1045C00000180040001C00400020004080B487B06C
:1045D00000AF786039607B681B6A23F001027B685A
:1045E0001A627B681B6A7B617B685B683B617B68E6
:1045F0009B69FB60FB6823F07003FB60FB6823F0A2
:104600000303FB603B681B68FA681343FB607B692C
:1046100023F002037B613B689B687A6913437B61EB
:104620007B68204A934203D07B681F4A93420CD197
:104630007B6923F008037B613B68DB687A6913437D
:104640007B617B6923F004037B617B68154A93429D
:1046500003D07B68144A934211D13B6923F48073E1
:104660003B613B6923F400733B613B685B693A69DA
:1046700013433B613B689B693A6913433B617B6829
:104680003A695A607B68FA689A613B685A687B6845
:104690005A637B687A691A6200BF1C37BD465DF8B1
:1046A000047B7047000001400004014080B487B0E3
:1046B00000AF786039607B681B6A23F010027B686A
:1046C0001A627B681B6A7B617B685B683B617B6805
:1046D0009B69FB60FB6823F4E043FB60FB6823F409
:1046E0004073FB603B681B681B02FA681343FB6066
:1046F0007B6923F020037B613B689B681B017A691F
:1047000013437B617B68224A934203D07B68214A32
:1047100093420DD17B6923F080037B613B68DB68AA
:104720001B017A6913437B617B6923F040037B6142
:104730007B68174A934203D07B68164A934213D191
:104740003B6923F480633B613B6923F400633B6175
:104750003B685B699B003A6913433B613B689B691B
:104760009B003A6913433B617B683A695A607B68F6
:10477000FA689A613B685A687B689A637B687A69D1
:104780001A6200BF1C37BD465DF8047B704700BF4E
:10479000000001400004014080B487B000AF7860A1
:1047A00039607B681B6A23F480727B681A627B68BD
:1047B0001B6A7B617B685B683B617B68DB69FB60D4
:1047C000FB6823F07003FB60FB6823F00303FB60CE
:1047D0003B681B68FA681343FB607B6923F4007332
:1047E0007B613B689B681B027A6913437B617B6832
:1047F000214A934203D07B68204A93420DD17B69C2
:1048000023F400637B613B68DB681B027A69134316
:104810007B617B6923F480637B617B68164A9342EA
:1048200003D07B68154A934213D13B6923F480532C
:104830003B613B6923F400533B613B685B691B01AF
:104840003A6913433B613B689B691B013A69134317
:104850003B617B683A695A607B68FA68DA613B6859
:104860005A687B68DA637B687A691A6200BF1C3712
:10487000BD465DF8047B7047000001400004014024
:1048800080B487B000AF786039607B681B6A23F41E
:1048900080527B681A627B681B6A3B617B685B683D
:1048A0007B617B68DB69FB60FB6823F4E043FB60B2
:1048B000FB6823F44073FB603B681B681B02FA68CB
:1048C0001343FB603B6923F400533B613B689B68E7
:1048D0001B033A6913433B617B68124A934203D03E
:1048E0007B68114A934209D17B6923F480437B6141
:1048F0003B685B699B017A6913437B617B687A69DA
:104900005A607B68FA68DA613B685A687B681A64A7
:104910007B683A691A6200BF1C37BD465DF8047BAC
:10492000704700BF000001400004014080B487B020
:1049300000AFF860B9607A60FB681B6A7B61FB6856
:104940001B6A23F00102FB681A62FB689B693B61EA
:104950003B6923F0F0033B617B681B013A69134319
:104960003B617B6923F00A037B617A69BB6813436F
:104970007B61FB683A699A61FB687A691A6200BFD9
:104980001C37BD465DF8047B704780B487B000AF2C
:10499000F860B9607A60FB681B6A23F01002FB685C
:1049A0001A62FB689B697B61FB681B6A3B617B69E0
:1049B00023F470437B617B681B037A6913437B613B
:1049C0003B6923F0A0033B61BB681B013A691343B9
:1049D0003B61FB687A699A61FB683A691A6200BFB9
:1049E0001C37BD465DF8047B704780B485B000AFCE
:1049F000786039607B689B68FB60FB6823F070031C
:104A0000FB603A68FB68134343F00703FB607B6875
:104A1000FA689A6000BF1437BD465DF8047B7047A2
:104A200080B487B000AFF860B9607A603B60FB6823
:104A30009B687B617B6923F47F437B613B681A023F
:104A40007B681A43BB6813437A6913437B61FB6835
:104A50007A699A6000BF1C37BD465DF8047B7047D9
:104A600080B487B000AFF860B9607A60BB6803F0CB
:104A70001F03012202FA03F37B61FB681A6A7B6958
:104A8000DB431A40FB681A62FB681A6ABB6803F0D2
:104A90001F03796801FA03F31A43FB681A6200BF27
:104AA0001C37BD465DF8047B7047000080B485B0BC
:104AB00000AF786039607B6893F83C30012B01D1FE
:104AC00002235AE07B68012283F83C207B680222A3
:104AD00083F83D207B681B685B68FB607B681B6814
:104AE0009B68BB60FB6823F07003FB603B681B683E
:104AF000FA681343FB607B681B68FA685A607B683E
:104B00001B68214A934222D07B681B68B3F1804F17
:104B10001DD07B681B681D4A934218D07B681B68B8
:104B20001B4A934213D07B681B681A4A93420ED0EB
:104B30007B681B68184A934209D07B681B68174A38
:104B4000934204D07B681B68154A93420CD1BB6822
:104B500023F08003BB603B685B68BA681343BB60AB
:104B60007B681B68BA689A607B68012283F83D20E5
:104B70007B68002283F83C20002318461437BD468A
:104B80005DF8047B704700BF000001400004004056
:104B900000080040000C00400004014000400140BB
:104BA0000018004080B485B000AF78603960002301
:104BB000FB607B6893F83C30012B01D102233DE080
:104BC0007B68012283F83C20FB6823F0FF023B68EE
:104BD000DB681343FB60FB6823F440723B689B680F
:104BE0001343FB60FB6823F480623B685B681343FC
:104BF000FB60FB6823F400623B681B681343FB60A7
:104C0000FB6823F480523B681B691343FB60FB681D
:104C100023F400523B685B691343FB60FB6823F499
:104C200080423B68DB691343FB607B681B68FA6862
:104C30005A647B68002283F83C200023184614370E
:104C4000BD465DF8047B704780B483B000AF7860E8
:104C500000BF0C37BD465DF8047B704780B483B05D
:104C600000AF786000BF0C37BD465DF8047B70472D
:104C700080B582B000AF78607B68002B01D1012342
:104C80003FE07B6893F83D30DBB2002B06D17B68B8
:104C9000002283F83C207868FDF7E2FA7B68242242
:104CA00083F83D207B681B68DA687B681B6822F408
:104CB0000052DA60786800F07BFD7B681B681A6937
:104CC0007B681B6822F490421A617B681B685A69F2
:104CD0007B681B6822F02A025A617B681B68DA68CD
:104CE0007B681B6842F40052DA607B6800221A6419
:104CF0007B68202283F83D207B68202283F83E20B9
:104D0000002318460837BD4680BD80B58AB002AF83
:104D1000F860B9603B601346FB8000237B61FB6851
:104D200093F83D30DBB2202B7CD1BB68002B02D046
:104D3000FB88002B01D1012375E0FB6893F83C3020
:104D4000012B01D102236EE0FB68012283F83C2095
:104D5000FB6800221A64FB68212283F83D20FDF7DE
:104D600057FC7861FB68FA889A84FB68FA88DA84D1
:104D7000FB689B68B3F5805F08D1FB681B69002B5B
:104D800004D10023FB61BB68BB6103E0BB68FB612E
:104D90000023BB61FB68002283F83C202AE03B68CB
:104DA00000937B6900228021F86800F0F9FA03463D
:104DB000002B01D0032336E0FB69002B0BD1BB692C
:104DC0001B881A46FB681B68C2F308025A60BB695D
:104DD0000233BB6107E0FB691A78FB681B685A6005
:104DE000FB690133FB61FB68DB8C9BB2013B9AB230
:104DF000FB68DA84FB68DB8C9BB2002BCFD13B686D
:104E000000937B6900224021F86800F0C9FA03464C
:104E1000002B01D0032306E0FB68202283F83D200D
:104E2000002300E0022318462037BD4680BD000065
:104E300080B5BAB000AF78607B681B681B68C7F8A4
:104E4000E4307B681B68DB68C7F8E0307B681B6870
:104E50005B69C7F8DC300023C7F8D8300023C7F8F7
:104E6000D430D7F8E43003F00F03C7F8D830D7F8C0
:104E7000D830002B0FD1D7F8E43003F02003002BFB
:104E800009D0D7F8E03003F02003002B03D0786876
:104E900000F0D3FB56E2D7F8D830002B00F0DE80CC
:104EA000D7F8DC3003F00103002B06D1D7F8E0304F
:104EB00003F49073002B00F0D180D7F8E43003F0B6
:104EC0000103002B0BD0D7F8E03003F48073002BE4
:104ED00005D07B681B6C43F001027B681A64D7F82D
:104EE000E43003F00403002B0BD0D7F8DC3003F0E0
:104EF0000103002B05D07B681B6C43F002027B682A
:104F00001A64D7F8E43003F00203002B0BD0D7F873
:104F1000DC3003F00103002B05D07B681B6C43F0F1
:104F200004027B681A64D7F8E43003F00803002B0E
:104F300011D0D7F8E03003F02003002B05D1D7F8CB
:104F4000DC3003F00103002B05D07B681B6C43F0C1
:104F500008027B681A647B681B6C002B00F0ED81F3
:104F6000D7F8E43003F02003002B08D0D7F8E03066
:104F700003F02003002B02D0786800F05EFB7B6812
:104F80001B685B6903F04003402B0CBF0123002327
:104F9000DBB2C7F8D4307B681B6C03F00803002B2E
:104FA00003D1D7F8D430002B4FD0786800F066FAE0
:104FB0007B681B685B6903F04003402B41D17B6831
:104FC0001B681433C7F89C30D7F89C3053E8003F77
:104FD000C7F89830D7F8983023F04003C7F8D0309E
:104FE0007B681B681433D7F8D020C7F8A820C7F80F
:104FF000A430D7F8A410D7F8A82041E80023C7F8B8
:10500000A030D7F8A030002BD9D17B689B6B002B48
:1050100013D07B689B6B7D4A1A657B689B6B184637
:10502000FDF7A7FC0346002B16D07B689B6B1B6D1E
:105030007A68926B104698470EE0786800F09AF90B
:105040000AE0786800F096F906E0786800F092F9D6
:105050007B6800221A6470E100BF6EE17B681B6B05
:10506000012B40F04A81D7F8E43003F01003002B05
:1050700000F04381D7F8E03003F01003002B00F07C
:105080003C810023BB607B681B681B68BB607B683E
:105090001B685B68BB60BB687B681B685B6903F06F
:1050A0004003402B40F0B4807B689B6B1B685B68BF
:1050B000A7F8BE30B7F8BE30002B00F040817B6807
:1050C0009B8DB7F8BE209A4280F039817B68B7F893
:1050D000BE20DA857B689B6BDB69B3F5807F00F0CF
:1050E00088807B681B680C33C7F88830D7F8883015
:1050F00053E8003FC7F88430D7F8843023F4807336
:10510000C7F8B8307B681B680C33D7F8B820C7F8ED
:105110009420C7F89030D7F89010D7F8942041E841
:105120000023C7F88C30D7F88C30002BD9D17B689E
:105130001B6814337B677B6F53E8003F3B673B6F13
:1051400023F00103C7F8B4307B681B681433D7F829
:10515000B420C7F88020FB67F96FD7F8802041E8BA
:105160000023BB67BB6F002BE1D17B681B68143346
:105170003B663B6E53E8003FFB65FB6D23F040034D
:10518000C7F8B0307B681B681433D7F8B020FA66D4
:10519000BB66B96EFA6E41E800237B667B6E002B1E
:1051A000E3D17B68202283F83E207B6800221A63CB
:1051B0007B681B680C33FB64FB6C53E8003FBB64EB
:1051C000BB6C23F01003C7F8AC307B681B680C3352
:1051D000D7F8AC20BA657B65796DBA6D41E80023DC
:1051E0003B653B6D002BE3D17B689B6B1846FDF75D
:1051F00050FB7B689A8D7B68DB8D9BB2D31A9BB288
:105200001946786800F0C0F899E000BF43550008DF
:105210007B689A8D7B68DB8D9BB2D31AA7F8CE3062
:105220007B68DB8D9BB2002B00F08B80B7F8CE3013
:10523000002B00F086807B681B680C33BB63BB6B64
:1052400053E8003F7B637B6B23F49073C7F8C8304F
:105250007B681B680C33D7F8C8207A643B64396CD0
:105260007A6C41E80023FB63FB6B002BE3D17B6886
:105270001B6814337B627B6A53E8003F3B623B6AE6
:1052800023F00103C7F8C4307B681B681433D7F8D8
:10529000C4203A63FB62F96A3A6B41E80023BB62BF
:1052A000BB6A002BE3D17B68202283F83E207B6819
:1052B00000221A637B681B680C333B613B6953E82F
:1052C000003FFB60FB6823F01003C7F8C0307B6829
:1052D0001B680C33D7F8C020FA61BB61B969FA6961
:1052E00041E800237B617B69002BE3D1B7F8CE3026
:1052F0001946786800F048F823E0D7F8E43003F066
:105300008003002B09D0D7F8E03003F08003002B96
:1053100003D0786800F029F914E0D7F8E43003F0FE
:105320004003002B0ED0D7F8E03003F04003002BF1
:1053300008D0786800F069F904E000BF02E000BF1F
:1053400000E000BFE837BD4680BD00BF80B483B039
:1053500000AF786000BF0C37BD465DF8047B704736
:1053600080B483B000AF786000BF0C37BD465DF8F5
:10537000047B704780B483B000AF786000BF0C3707
:10538000BD465DF8047B704780B483B000AF7860A1
:105390000B467B8000BF0C37BD465DF8047B704731
:1053A00080B590B000AFF860B9603B601346FB7108
:1053B00050E0BB6CB3F1FF3F4CD0BB6C002B07D06F
:1053C000FDF726F902463B68D31ABA6C9A4241D2DD
:1053D000FB681B680C33BB62BB6A53E8003F7B620F
:1053E0007B6A23F4D073FB63FB681B680C33FA6B96
:1053F0007A633B63396B7A6B41E80023FB62FB6A9B
:10540000002BE5D1FB681B6814337B617B6953E893
:10541000003F3B613B6923F00103BB63FB681B68F2
:105420001433BA6B3A62FB61F9693A6A41E80023C6
:10543000BB61BB69002BE5D1FB68202283F83D20CE
:10544000FB68202283F83E20FB68002283F83C2082
:1054500003230FE0FB681B681A68BB681340BA6837
:105460009A420CBF01230023DBB21A46FB799A4211
:105470009FD0002318464037BD4680BD80B495B00C
:1054800000AF78607B681B680C337B637B6B53E8F1
:10549000003F3B633B6B23F49073FB647B681B68AA
:1054A0000C33FA6C3A64FB63F96B3A6C41E8002305
:1054B000BB63BB6B002BE5D17B681B6814333B627D
:1054C0003B6A53E8003FFB61FB6923F00103BB64C7
:1054D0007B681B681433BA6CFA62BB62B96AFA6AF9
:1054E00041E800237B627B6A002BE5D17B681B6B64
:1054F000012B19D17B681B680C33FB60FB6853E8F8
:10550000003FBB60BB6823F010037B647B681B68B3
:105510000C337A6CBA617B617969BA6941E800231E
:105520003B613B69002BE5D17B68202283F83E205C
:105530007B6800221A6300BF5437BD465DF8047BC8
:10554000704780B584B000AF78607B689B6BFB6070
:10555000FB680022DA85FB680022DA84F868FFF72E
:1055600009FF00BF1037BD4680BD80B485B000AFD5
:1055700078607B6893F83D30DBB2212B3ED17B68AD
:105580009B68B3F5805F14D17B681B69002B10D139
:105590007B681B6AFB60FB681B881A467B681B687C
:1055A000C2F308025A607B681B6A9A1C7B681A6205
:1055B00008E07B681B6A591C7A6811621A787B685C
:1055C0001B685A607B68DB8C9BB2013B9BB27A689C
:1055D0001946D184002B0FD17B681B68DA687B6881
:1055E0001B6822F08002DA607B681B68DA687B68DF
:1055F0001B6842F04002DA60002300E002231846F4
:105600001437BD465DF8047B704780B582B000AFAB
:1056100078607B681B68DA687B681B6822F0400250
:10562000DA607B68202283F83D207868FFF78EFEE1
:10563000002318460837BD4680BD80B58CB000AF4A
:1056400078607B6893F83E30DBB2222B40F0AB8071
:105650007B689B68B3F5805F17D17B681B69002B63
:1056600013D10023FB627B689B6ABB627B681B686B
:105670005B689BB2C3F308039AB2BB6A1A807B686B
:105680009B6A9A1C7B689A6226E07B689B6AFB6235
:105690000023BB627B689B68B3F5805F07D07B68A3
:1056A0009B68002B0AD17B681B69002B06D17B68A5
:1056B0001B685B68DAB2FB6A1A7008E07B681B68DB
:1056C0005B68DBB203F07F03DAB2FB6A1A707B68B7
:1056D0009B6A5A1C7B689A627B68DB8D9BB2013B9C
:1056E0009BB27A681946D185002B5AD17B681B681A
:1056F000DA687B681B6822F02002DA607B681B682E
:10570000DA687B681B6822F48072DA607B681B6849
:105710005A697B681B6822F001025A617B6820226B
:1057200083F83E207B681B6B012B35D17B68002200
:105730001A637B681B680C337B617B6953E8003F0D
:105740003B613B6923F010037B627B681B680C3371
:105750007A6A3A62FB61F9693A6A41E80023BB61FF
:10576000BB69002BE5D17B681B681B6803F0100345
:10577000102B0AD10023FB607B681B681B68FB6051
:105780007B681B685B68FB60FB687B689B8D1946C8
:105790007868FFF7F9FD02E07868FFF7E1FD002384
:1057A00002E0002300E0022318463037BD4680BDEA
:1057B0002DE9B04FC0B000AFC7F8F400D7F8F4300F
:1057C0001B681B6923F44050D7F8F430D968D7F828
:1057D000F4301A6840EA01031361D7F8F4309A688C
:1057E000D7F8F4301B691A43D7F8F4305B691A43D1
:1057F000D7F8F430DB691343C7F8F830D7F8F43042
:105800001B68DB6823F4164121F00C01D7F8F43053
:105810001A68D7F8F8300B43D360D7F8F4301B6818
:105820005B6923F44070D7F8F4309969D7F8F43005
:105830001A6840EA01035361D7F8F4301A688F4BB5
:105840009A4205D0D7F8F4301A688D4B9A4204D1A9
:10585000FEF78AF8C7F8FC0003E0FEF771F8C7F816
:10586000FC00D7F8F430DB69B3F5004F40F00C8151
:10587000D7F8FC300022C7F8E830C7F8EC20D7E9A9
:105880003A4522462B469118B9655B41FB65D7E93D
:105890001623214612EB0108294643EB01094FF07C
:1058A00000024FF000034FEAC90343EA58734FEA7E
:1058B000C80290469946234618EB0303C7F8E03028
:1058C0002B4649EB0303C7F8E430D7F8F4305B68A4
:1058D0000022C7F8D830C7F8DC20D7E936120B46CB
:1058E000DB183B65134642EB03037B65D7E91423C2
:1058F000D7E93801FAF7BCFC02460B46614BA3FB23
:1059000002235B091C01D7F8FC300022C7F8D03015
:10591000C7F8D420D7E9348942464B469118B96478
:105920005B41FB64D7E91223414612EB010A494669
:1059300043EB010B4FF000024FF000034FEACB03A3
:1059400043EA5A734FEACA0292469B4643461AEB11
:105950000303C7F8C8304B464BEB0303C7F8CC3002
:10596000D7F8F4305B680022C7F8C030C7F8C4200D
:10597000D7E930120B46DB183B64134642EB0303B6
:105980007B64D7E91023D7E93201FAF771FC0246AC
:105990000B4611463B4BA3FB01235B09642202FB30
:1059A00003F3CB1ADB0003F13202364BA3FB0223D5
:1059B0005B095B0003F4F8731C44D7F8FC30002249
:1059C000C7F8B830C7F8BC20D7E92E8942464B4605
:1059D0009118B9635B41FB63D7E90E234146511827
:1059E000396349464B417B634FF000024FF000039F
:1059F000D7E90CAB5946CB00514643EA51735146A7
:105A0000CA0010461946034642469B18C7F8B030F4
:105A10004B460A4642EB0303C7F8B430D7F8F430DC
:105A20005B680022C7F8A830C7F8AC20D7E92A1273
:105A30000B46DB18BB62134642EB0303FB62D7E95C
:105A40000A23D7E92C01FAF713FC02460B460D4B4B
:105A5000A3FB02135B09642101FB03F3D31ADB00F0
:105A60003233084AA2FB03235B0903F00702D7F88D
:105A7000F4301B6822449A6006E100BF0010014028
:105A8000001401401F85EB51D7F8FC300022C7F805
:105A9000A030C7F8A420D7E9288942464B46911880
:105AA00039625B417B62D7E9082341465418494675
:105AB00043EB01054FF000024FF00003EB0043EA17
:105AC0005473E20014461D464346E318C7F8983065
:105AD0004B4645EB0303C7F89C30D7F8F4305B68BE
