:020000040800F2
:1000000000000220C11C0008A91A0008AF1A00084D
:10001000B51A0008BB1A0008C11A00080000000049
:10002000000000000000000000000000C71A0008E7
:10003000D51A000800000000E31A0008F11A0008B1
:10004000111D0008111D0008111D0008111D0008D8
:10005000111D0008111D0008111D0008111D0008C8
:10006000111D0008111D0008111D0008111D0008B8
:10007000111D0008111D0008111D0008111D0008A8
:10008000111D0008111D0008111D0008111D000898
:10009000111D0008111D0008111D0008111D000888
:1000A000111D0008111D0008111D0008111D000878
:1000B000111D0008111D0008111D0008111D000868
:1000C000111D0008111D0008111D0008111D000858
:1000D000111D0008111D0008111D0008111D000848
:1000E000111D0008111D0008111D0008111D000838
:1000F000111D0008111D0008FD1A0008111D00083F
:10010000111D0008111D0008111D0008111D000817
:10011000111D0008111D0008111D0008111D000807
:10012000111D0008111D0008111D0008111D0008F7
:10013000111D0008111D0008111D0008111D0008E7
:10014000111D0008111D0008111D0008111D0008D7
:10015000111D0008111D0008111D0008111D0008C7
:10016000111D0008111D0008111D0008111D0008B7
:10017000111D0008111D0008111D000800000000DD
:08018000111D0008111D00080B
:1001900010B5054C237833B9044B13B10448AFF3C1
:1001A00000800123237010BDD40100200000000056
:1001B0002073000808B5034B1BB103490348AFF394
:1001C000008008BD00000000D80100202073000856
:1001D00001F0FF01102A2BDB10F0070F08D010F8F8
:1001E000013B013A8B422DD010F0070F42B3F6D1FC
:1001F000F0B441EA012141EA014122F007047FF015
:1002000000070023F0E80256083C85EA010586EA6B
:10021000010685FA47F5A3FA87F586FA47F6A5FAA7
:1002200087F68EB9EED1F0BC01F0FF0102F00702B3
:1002300032B110F8013B013A83EA010313B1F8D15E
:100240000020704701387047002D06BF354603383F
:10025000073815F0010F07D1013015F4807F02BF78
:10026000013015F4C03F0130F0BC0138704700BFC9
:10027000034613F8012B002AFBD1181A01387047E6
:1002800081F0004102E000BF83F0004330B54FEA47
:1002900041044FEA430594EA050F08BF90EA020FB4
:1002A0001FBF54EA000C55EA020C7FEA645C7FEA47
:1002B000655C00F0E2804FEA5454D4EB5555B8BF6A
:1002C0006D420CDD2C4480EA020281EA030382EADB
:1002D000000083EA010180EA020281EA0303362D6D
:1002E00088BF30BD11F0004F4FEA01314FF4801C40
:1002F0004CEA113102D0404261EB410113F0004F52
:100300004FEA03334CEA133302D0524263EB430308
:1003100094EA050F00F0A780A4F10104D5F1200EA6
:100320000DDB02FA0EFC22FA05F2801841F1000101
:1003300003FA0EF2801843FA05F359410EE0A5F1D5
:1003400020050EF1200E012A03FA0EFC28BF4CF006
:10035000020C43FA05F3C01851EBE37101F00045BC
:1003600007D54FF0000EDCF1000C7EEB00006EEBC9
:100370000101B1F5801F1BD3B1F5001F0CD3490853
:100380005FEA30004FEA3C0C04F101044FEA4452AA
:1003900012F5800F80F09A80BCF1004F08BF5FEA31
:1003A000500C50F1000041EB045141EA050130BD11
:1003B0005FEA4C0C404141EB0101013C28BFB1F523
:1003C000801FE9D291F0000F04BF01460020B1FA6E
:1003D00081F308BF2033A3F10B03B3F120020CDA41
:1003E0000C3208DD02F1140CC2F10C0201FA0CF01F
:1003F00021FA02F10CE002F11402D8BFC2F1200C84
:1004000001FA02F120FA0CFCDCBF41EA0C01904039
:10041000E41AA2BF01EB0451294330BD6FEA040482
:100420001F3C1CDA0C340EDC04F11404C4F120026D
:1004300020FA04F001FA02F340EA030021FA04F37F
:1004400045EA030130BDC4F10C04C4F1200220FAD6
:1004500002F001FA04F340EA0300294630BD21FA14
:1004600004F0294630BD94F0000F83F4801306BFDA
:1004700081F480110134013D4EE77FEA645C18BFCE
:100480007FEA655C29D094EA050F08BF90EA020F65
:1004900005D054EA000C04BF1946104630BD91EA5D
:1004A000030F1EBF0021002030BD5FEA545C05D160
:1004B0004000494128BF41F0004130BD14F580049F
:1004C0003CBF01F5801130BD01F0004545F0FE4113
:1004D00041F470014FF0000030BD7FEA645C1ABF48
:1004E000194610467FEA655C1CBF0B46024650EA7F
:1004F000013406BF52EA033591EA030F41F40021AB
:1005000030BD00BF90F0000F04BF0021704730B530
:100510004FF4806404F132044FF000054FF0000105
:1005200050E700BF90F0000F04BF0021704730B5C6
:100530004FF4806404F1320410F0004548BF40429B
:100540004FF000013EE700BF42004FEAE2014FEAF0
:1005500031014FEA02701FBF12F07F4393F07F4FCB
:1005600081F06051704732F07F4208BF704793F0CE
:100570007F4F04BF41F40021704730B54FF46074E1
:1005800001F0004521F000411CE700BF50EA0102E4
:1005900008BF704730B54FF000050AE050EA01028D
:1005A00008BF704730B511F0004502D5404261EBFD
:1005B00041014FF4806404F132045FEA915C3FF43E
:1005C000D8AE4FF003025FEADC0C18BF03325FEADB
:1005D000DC0C18BF033202EBDC02C2F1200300FA8C
:1005E00003FC20FA02F001FA03FE40EA0E0021FAB1
:1005F00002F11444BDE600BF70B54FF0FF0C4CF49F
:10060000E06C1CEA11541DBF1CEA135594EA0C0F50
:1006100095EA0C0F00F0DEF82C4481EA030621EA8B
:100620004C5123EA4C5350EA013518BF52EA0335C6
:1006300041F4801143F4801338D0A0FB02CE4FF078
:100640000005E1FB02E506F00042E0FB03E54FF0A8
:100650000006E1FB03569CF0000F18BF4EF0010EA0
:10066000A4F1FF04B6F5007F64F5407404D25FEA9C
:100670004E0E6D4146EB060642EAC62141EA55514F
:100680004FEAC52040EA5E504FEACE2EB4F1FD0C91
:1006900088BFBCF5E06F1ED8BEF1004F08BF5FEA0F
:1006A000500E50F1000041EB045170BD06F00046C1
:1006B00046EA010140EA020081EA0301B4EB5C046E
:1006C000C2BFD4EB0C0541EA045170BD41F4801166
:1006D0004FF0000E013C00F3AB8014F1360FDEBF8B
:1006E000002001F0004170BDC4F10004203C35DA67
:1006F0000C341BDC04F11404C4F1200500FA05F3EA
:1007000020FA04F001FA05F240EA020001F000428A
:1007100021F0004110EBD37021FA04F642EB060100
:100720005EEA430E08BF20EAD37070BDC4F10C042A
:10073000C4F1200500FA04F320FA05F001FA04F2EE
:1007400040EA020001F0004110EBD37041F10001DA
:100750005EEA430E08BF20EAD37070BDC4F12005E5
:1007600000FA05F24EEA020E20FA04F301FA05F24D
:1007700043EA020321FA04F001F0004121FA04F2F5
:1007800020EA020000EBD3705EEA430E08BF20EAC5
:10079000D37070BD94F0000F0FD101F000464000FF
:1007A00041EB010111F4801F08BF013CF7D041EA81
:1007B000060195F0000F18BF704703F00046520085
:1007C00043EB030313F4801F08BF013DF7D043EA56
:1007D0000603704794EA0C0F0CEA135518BF95EA0C
:1007E0000C0F0CD050EA410618BF52EA4306D1D193
:1007F00081EA030101F000414FF0000070BD50EAB2
:10080000410606BF1046194652EA430619D094EA3B
:100810000C0F02D150EA013613D195EA0C0F05D125
:1008200052EA03361CBF104619460AD181EA030179
:1008300001F0004141F0FE4141F470014FF0000031
:1008400070BD41F0FE4141F4780170BD70B54FF0CC
:10085000FF0C4CF4E06C1CEA11541DBF1CEA13554C
:1008600094EA0C0F95EA0C0F00F0A7F8A4EB05042E
:1008700081EA030E52EA03354FEA013100F0888025
:100880004FEA03334FF0805545EA131343EA1263EE
:100890004FEA022245EA111545EA10654FEA0026A3
:1008A0000EF000419D4208BF964244F1FD0404F55C
:1008B000407402D25B084FEA3202B61A65EB0305B8
:1008C0005B084FEA32024FF480104FF4002CB6EB75
:1008D000020E75EB030E22BFB61A754640EA0C00F5
:1008E0005B084FEA3202B6EB020E75EB030E22BF35
:1008F000B61A754640EA5C005B084FEA3202B6EB76
:10090000020E75EB030E22BFB61A754640EA9C0034
:100910005B084FEA3202B6EB020E75EB030E22BF04
:10092000B61A754640EADC0055EA060E18D04FEAC2
:10093000051545EA16754FEA06164FEAC30343EA62
:1009400052734FEAC2025FEA1C1CC0D111F4801F2F
:100950000BD141EA00014FF000004FF0004CB6E728
:1009600011F4801F04BF01430020B4F1FD0C88BFC7
:10097000BCF5E06F3FF6AFAEB5EB030C04BFB6EBD2
:10098000020C5FEA500C50F1000041EB045170BDC5
:100990000EF0004E4EEA113114EB5C04C2BFD4EBF2
:1009A0000C0541EA045170BD41F480114FF0000E76
:1009B000013C90E645EA060E8DE60CEA135594EAF2
:1009C0000C0F08BF95EA0C0F3FF43BAF94EA0C0FF5
:1009D0000AD150EA01347FF434AF95EA0C0F7FF46A
:1009E00025AF104619462CE795EA0C0F06D152EABE
:1009F00003353FF4FDAE1046194622E750EA4106A2
:100A000018BF52EA43067FF4C5AE50EA41047FF4B2
:100A10000DAF52EA43057FF4EBAE12E74FF0FF3C17
:100A200006E000BF4FF0010C02E000BF4FF0010CE8
:100A30004DF804CD4FEA410C7FEA6C5C4FEA430C61
:100A400018BF7FEA6C5C1BD001B050EA410C0CBFB0
:100A500052EA430C91EA030F02BF90EA020F002012
:100A6000704710F1000F91EA030F58BF994208BF79
:100A700090422CBFD8176FEAE37040F00100704736
:100A80004FEA410C7FEA6C5C02D150EA013C07D18D
:100A90004FEA430C7FEA6C5CD6D152EA033CD3D0D8
:100AA0005DF8040B704700BF8446104662468C46D2
:100AB0001946634600E000BF01B5FFF7B7FF002805
:100AC00048BF10F1000F01BD4DF808EDFFF7F4FF2E
:100AD0000CBF012000205DF808FB00BF4DF808EDB9
:100AE000FFF7EAFF34BF012000205DF808FB00BFDC
:100AF0004DF808EDFFF7E0FF94BF012000205DF8FE
:100B000008FB00BF4DF808EDFFF7CEFF94BF0120B2
:100B100000205DF808FB00BF4DF808EDFFF7C4FFAB
:100B200034BF012000205DF808FB00BF4FEA410CF4
:100B30007FEA6C5C02D150EA013C0AD14FEA430CD7
:100B40007FEA6C5C02D152EA033C02D14FF0000014
:100B500070474FF0010070474FEA410212F5001252
:100B600015D211D56FF47873B3EB625212D94FEAF4
:100B7000C12343F0004343EA505311F0004F23FADE
:100B800002F018BF404270474FF00000704750EA33
:100B9000013005D111F0004008BF6FF000407047F0
:100BA0004FF00000704700BF53B94AB9002908BF91
:100BB00000281CBF4FF0FF314FF0FF3000F070B93C
:100BC000ADF1080C6DE904CE00F006F8DDF804E0A4
:100BD000DDE9022304B070472DE9F047089E0D4679
:100BE00004460F46002B4AD18A42944665D9B2FA90
:100BF00082F343B102FA03FCC3F120029F4020FAC2
:100C000002F217439C404FEA1C4E1FFA8CF5B7FBCB
:100C1000FEF1220C0EFB117742EA074201FB05F0C0
:100C200090420AD91CEB020201F1FF3780F01C81CF
:100C3000904240F2198102396244121AA4B2B2FB06
:100C4000FEF00EFB102244EA024400FB05F5A5422B
:100C50000AD91CEB040400F1FF3280F00781A542A1
:100C600040F204816444023840EA0140641B0021E0
:100C70001EB1DC400023C6E90043BDE8F0878B428B
:100C800008D9002E00F0ED800021C6E900050846D5
:100C9000BDE8F087B3FA83F1002949D1AB4202D312
:100CA000824200F2F880841A65EB030201201746A5
:100CB000002EE2D0C6E90047DFE702B9FFDEB2FA54
:100CC00082F3002B40F090808A1A4FEA1C471FFAEB
:100CD0008CFE0121B2FBF7F507FB1520220C42EA3E
:100CE00000420EFB05F0904208D91CEB020205F110
:100CF000FF3802D2904200F2CB804546121AA4B2CD
:100D0000B2FBF7F007FB102244EA02440EFB00FEA0
:100D1000A64508D91CEB040400F1FF3202D2A64517
:100D200000F2BB801046A4EB0E0440EA05409FE7AA
:100D3000C1F120078B4022FA07FC4CEA030C05FAAC
:100D400001F420FA07F3FD404FEA1C492343B5FBA9
:100D5000F9F81FFA8CFE09FB18551C0C44EA0544EF
:100D600008FB0EF5A54202FA01F200FA01F00BD9D8
:100D70001CEB040408F1FF3A80F08880A54240F2A1
:100D80008580A8F102086444641B9DB2B4FBF9F3AA
:100D900009FB134445EA044403FB0EFEA64508D9AB
:100DA0001CEB040403F1FF356CD2A6456AD9023B63
:100DB000644443EA0843A3FB0295A4EB0E04AC424F
:100DC000C846AE4656D353D056B1B0EB080264EBDA
:100DD0000E0404FA07F7CA40CC401743C6E9007472
:100DE00018460021BDE8F087C3F1200102FA03FC98
:100DF00020FA01F225FA01F19D402A434FEA1C47EF
:100E00001FFA8CFEB1FBF7F007FB1015110C41EA3D
:100E1000054100FB0EF58D4204FA03F408D91CEBE2
:100E2000010100F1FF382FD28D422DD902386144E3
:100E3000491B92B2B1FBF7F507FB151142EA0142DB
:100E400005FB0EF1914208D91CEB020205F1FF38B7
:100E500016D2914214D9023D6244521A45EA004129
:100E600038E73146304608E73946E6E61046FBE605
:100E70004845A9D2B9EB020865EB0C0E013BA3E78C
:100E80004546EAE72B4694E74046D1E7D0467BE764
:100E9000023D624432E708460AE76444023842E70A
:100EA000704700BF90B587B000AF214B3C1D0FCB02
:100EB00007C423800023BB7400F02CFF00F042F82D
:100EC00000F072F900F046F900F09AF800F0CEF860
:100ED00000F086FC174A05210A2000F04FFC164B53
:100EE0007B617A691E21282000F048FC00F01CFB81
:100EF0004FF48071114801F06AFA4FF4FA7000F073
:100F00007BFF4FF480710D4801F061FA4FF480517E
:100F10000A4801F05CFA391D05230F22084803F046
:100F200018F800F06FFA4FF4FA7000F065FFEDE783
:100F3000487300083873000840730008000002403E
:100F40008002002080B594B000AF07F1200330226A
:100F50000021184604F0EBF807F10C0300221A6098
:100F60005A609A60DA601A610023BB60224B1B6CE6
:100F7000214A43F0805313641F4B1B6C03F08053D2
:100F8000BB60BB6800237B601C4B1B681B4A43F49F
:100F900080431360194B1B6803F480437B607B68BC
:100FA00002233B620123FB6210233B630023BB63EC
:100FB00007F12003184601F04DFA0346002B01D03B
:100FC00000F05EFA0F23FB6000233B6100237B618E
:100FD0000023BB610023FB6107F10C0300211846CD
:100FE00001F0B0FC0346002B01D000F049FA00BF2D
:100FF0005037BD4680BD00BF003802400070004041
:1010000080B582B000AF3B4600221A605A60154B93
:10101000154A1A60134B00225A60124B00229A6044
:10102000104B4FF6FF72DA600E4B00229A610D48AA
:1010300001F068FE0346002B01D000F021FA0023E6
:101040003B6000237B603B461946064802F0A4FE45
:101050000346002B01D000F013FA00BF0837BD464D
:1010600080BD00BFF00100200010004080B58AB0B4
:1010700000AF07F1180300221A605A609A60DA6024
:1010800007F1100300221A605A603B4600221A60E2
:101090005A609A60DA602D4B2D4A1A602B4B002261
:1010A0005A602A4B00229A60284B4FF6FF72DA6092
:1010B000264B00221A61254B00225A61234B002245
:1010C0009A61224801F01EFE0346002B01D000F079
:1010D000D7F94FF48053BB6107F1180319461B4839
:1010E00002F09CFA0346002B01D000F0C9F9174822
:1010F00001F0C0FE0346002B01D000F0C1F900232F
:101100003B6100237B6107F1100319460F4802F091
:1011100043FE0346002B01D000F0B2F900233B60F0
:1011200001237B600023BB600023FB603B4604225D
:101130001946064802F0D6F90346002B01D000F00C
:101140009FF900BF2837BD4680BD00BF3802002090
:101150000004014080B500AF114B124A1A60104BD9
:101160004FF4E1325A600E4B00229A600C4B002281
:10117000DA600B4B00221A61094B0C225A61084BB2
:1011800000229A61064B0022DA61054802F094FEC3
:101190000346002B01D000F073F900BF80BD00BFF3
:1011A000800200200048004080B58AB000AF07F1FF
:1011B000140300221A605A609A60DA601A610023F0
:1011C0003B613C4B1B6B3B4A43F002031363394BBF
:1011D0001B6B03F002033B613B690023FB60354B53
:1011E0001B6B344A43F008031363324B1B6B03F051
:1011F0000803FB60FB680023BB602E4B1B6B2D4A72
:1012000043F0040313632B4B1B6B03F00403BB601D
:10121000BB6800237B60274B1B6B264A43F001030E
:101220001363244B1B6B03F001037B607B6800227C
:101230004FF40041204801F0B1F800224FF4F04192
:101240001E4801F0ABF800224FF488511C4801F011
:10125000A5F84FF400437B610123BB610023FB61D0
:1012600000233B6207F114031946134800F0FAFE0D
:101270004FF4F0437B610123BB610023FB6100233A
:101280003B6207F1140319460C4800F0EBFE4FF4E3
:1012900088537B610123BB610023FB6100233B6218
:1012A00007F114031946064800F0DCFE00BF28379A
:1012B000BD4680BD0038024000040240000C0240E0
:1012C0000000024080B586B000AF78607B68464A77
:1012D000934240F08580454B1B68002B1BD10421B5
:1012E000786802F063FA03461A46414B1A603F4B96
:1012F00001221A607B681B681A6A7B681B6822F0EF
:10130000A0021A627B681B681A6A7B681B6842F03D
:1013100020021A6264E0354B1B68012B60D1042166
:10132000786802F043FA03461A46324B1A607B682B
:101330001B6800225A622F4B1A682D4B1B689A4279
:1013400007DB2C4B1A682A4B1B68D31A2A4A1360F6
:1013500009E0274B1B68C3F57F43FF33254A12681A
:101360001344254A1360244B1A6807F108032349E4
:10137000184603F079FE07F108031A4628210A20CF
:1013800000F0FCF91C4B1B6840F2571202FB03F300
:10139000DA0F13445B101A4607F108031849184680
:1013A00003F062FE07F108031A4632210A2000F01A
:1013B000E5F900F0B9F80D4B00221A607B681B6854
:1013C0001A6A7B681B6822F0A0021A627B681A689E
:1013D0007B681B68126A1A620421034801F0CCFE84
:1013E00000BF1837BD4680BD38020020C40200206F
:1013F000C8020020CC020020D00200205873000850
:101400006873000880B500AF00224FF4004119480E
:1014100000F0C4FF322000F0EFFC174801F0C2FCDE
:101420000421164801F080FD144B1B681A6A134B07
:101430001B6822F0A0021A62104B1A680F4B1B683F
:10144000126A1A6201224FF400410A4800F0A6FF16
:10145000094B1B6800225A6200BF074B1B685B6A7E
:101460000A2BFAD900224FF40041024800F096FFFF
:1014700000BF80BD00040240F001002038020020BF
:1014800080B400AF72B600BFFEE7000080B584B044
:1014900000AF03460A46FB711346BB71BB79012BB3
:1014A00006D101224FF400611E4800F077FF05E0ED
:1014B00000224FF400611B4800F070FF0023FB7313
:1014C00022E000224FF48041164800F067FF97F9B0
:1014D0000730002B06DA01224FF40051114800F0CA
:1014E0005DFF05E000224FF400510E4800F056FF6A
:1014F00001224FF480410B4800F050FFFB795B0064
:10150000FB71FB7B0133FB73FB7B072BD9D90122DA
:101510004FF40061034800F041FF00BF1037BD46A3
:1015200080BD00BF000C024080B582B000AF002338
:10153000FB7126E0FB79503BDBB200211846FFF738
:10154000A5FF00210020FFF7A1FF00211020FFF7D9
:101550009DFF0023BB710DE0BA79FB790D49D200E4
:101560000A4413441B7801211846FFF78FFFBB790B
:101570000133BB7197F90630002BEDDAFB790133AB
:10158000FB71FB79072BD5D900BF00BF0837BD46DB
:1015900080BD00BFD402002080B582B000AF002320
:1015A000FB7114E00023BB710AE0BA79FB790C49A6
:1015B000D2000A44134400221A70BB790133BB7174
:1015C00097F90630002BF0DAFB790133FB71FB79D8
:1015D000072BE7D9FFF7A8FF00BF0837BD4680BD3E
:1015E000D402002080B485B000AF0346FB710B46E7
:1015F000BB7113467B710023FB7397F90730002BF7
:1016000041DBBB793F2B3ED8BB79DB08DBB2C3F1B2
:101610000703BB73BB7903F007037B737B7BC3F1C9
:101620000703012202FA03F3FB737B79002B12D02C
:10163000FA79BB7B1749D2000A4413441878FA7927
:10164000BB7BF97B0143C8B21249D2000A44134460
:1016500002461A7018E0FA79BB7B0E49D2000A44A0
:1016600013441B785AB297F90F30DB435BB2134037
:1016700059B2FA79BB7BC8B20649D2000A44134476
:1016800002461A7000E000BF1437BD465DF8047BC7
:10169000704700BFD402002090B585B000AF04466B
:1016A000084611461A462346FB710346BB710B469A
:1016B0007B7113463B71BB793B737B79203B7B711C
:1016C0000023BB734DE03B790C2B0BD17A79B97BAE
:1016D000284813465B0013449B0003440B441B78CB
:1016E000FB7307E07A79BB7B234912010A44134458
:1016F0001B78FB7300237B732DE097F90F30002BD1
:1017000007DA97F82020B979FB791846FFF76AFFC6
:101710000CE097F82030002B0CBF01230023DBB234
:101720001A46B979FB791846FFF75CFFFB7B5B0033
:10173000FB73BB790133BB71BA793B7BD21A3B791E
:101740009A4205D13B7BBB71FB790133FB7105E00C
:101750007B7B01337B737B7B072BCED9BB7B013338
:10176000BB73BA7B3B799A42ADD300BF00BF14373D
:10177000BD4690BD78730008EC77000880B584B052
:1017800002AF03463A60FB710B46BB711FE0FB7969
:101790007A2B04D90023FB71BB791033BB71BB7961
:1017A0003A2B05D90023FB71FB79BB71FFF7F4FEDF
:1017B0003B681A78B979F879012300930C23FFF775
:1017C0006BFFFB790833FB713B6801333B603B687F
:1017D0001B78002BDBD100BF00BF0837BD4680BDA2
:1017E00080B500AF00F00EFE424B1B6F414A23F064
:1017F000010313673F4B1B6F3E4A23F0040313673B
:1018000000F014FE00224FF480513B4800F0C6FD6A
:10181000642000F0F1FA01224FF48051364800F0C4
:10182000BDFD0021AE20FFF731FE0021D520FFF7DE
:101830002DFE00215020FFF729FE0021A820FFF7F0
:1018400025FE00213F20FFF721FE0021D320FFF7D6
:101850001DFE00210020FFF719FE00214020FFF7A8
:1018600015FE00218D20FFF711FE00211420FFF747
:101870000DFE00212020FFF709FE00210220FFF7C6
:1018800005FE0021A120FFF701FE0021C020FFF787
:10189000FDFD0021DA20FFF7F9FD00211220FFF7FE
:1018A000F5FD00218120FFF7F1FD0021EF20FFF77A
:1018B000EDFD0021D920FFF7E9FD0021F120FFF720
:1018C000E5FD0021DB20FFF7E1FD00213020FFF7DF
:1018D000DDFD0021A420FFF7D9FD0021A620FFF7A0
:1018E000D5FD0021AF20FFF7D1FDFFF755FE00BF6A
:1018F00080BD00BF00380240000C024080B483B0BD
:1019000000AF00237B60104B5B6C0F4A43F48043B5
:1019100053640D4B5B6C03F480437B607B68002356
:101920003B60094B1B6C084A43F080531364064B21
:101930001B6C03F080533B603B6800BF0C37BD4617
:101940005DF8047B704700BF0038024080B58AB064
:1019500000AF786007F1140300221A605A609A60A1
:10196000DA601A617B681B68274A93420ED1002314
:101970003B61264B1B6C254A43F010031364234B39
:101980001B6C03F010033B613B6938E07B681B680C
:101990001F4A934233D10023FB601C4B5B6C1B4AF4
:1019A00043F002035364194B5B6C03F00203FB60CA
:1019B000FB680023BB60154B1B6B144A43F0040308
:1019C0001363124B1B6B03F00403BB60BB688023E3
:1019D0007B610223BB610023FB6100233B62032385
:1019E0007B6207F1140319460A4800F03BFB002212
:1019F00000212E2000F0FFFA2E2000F018FB00BF7F
:101A00002837BD4680BD00BF0010004000380240AE
:101A1000000401400008024080B58AB000AF786041
:101A200007F1140300221A605A609A60DA601A61A2
:101A30007B681B68194A93422CD100233B61184BE9
:101A40001B6C174A43F480231364154B1B6C03F47F
:101A500080233B613B690023FB60114B1B6B104AE9
:101A600043F0080313630E4B1B6B03F00803FB608A
:101A7000FB684FF440737B610223BB610023FB6171
:101A800003233B6207237B6207F1140319460548D1
:101A900000F0E8FA00BF2837BD4680BD004800408E
:101AA00000380240000C024080B400AFFEE780B472
:101AB00000AFFEE780B400AFFEE780B400AFFEE702
:101AC00080B400AFFEE780B400AF00BFBD465DF854
:101AD000047B704780B400AF00BFBD465DF8047B57
:101AE000704780B400AF00BFBD465DF8047B70470F
:101AF00080B500AF00F060F900BF80BD80B500AFD9
:101B0000024801F0E7FB00BF80BD00BF38020020A3
:101B100080B400AF01231846BD465DF8047B7047D2
:101B200080B582B000AF7860396003F053FB0346A4
:101B300016221A604FF0FF3318460837BD4680BDA5
:101B400080B582B000AF78604FF0FF317868FFF762
:101B5000E7FFFEE780B586B000AFF860B9607A6055
:101B600000237B610AE0AFF300800146BB685A1C8A
:101B7000BA60CAB21A707B6901337B617A697B688B
:101B80009A42F0DB7B6818461837BD4680BD80B5A9
:101B900086B000AFF860B9607A6000237B6109E02D
:101BA000BB685A1CBA601B781846AFF300807B698B
:101BB00001337B617A697B689A42F1DB7B68184666
:101BC0001837BD4680BD80B483B000AF78604FF059
:101BD000FF3318460C37BD465DF8047B704780B470
:101BE00083B000AF786039603B684FF400525A60B0
:101BF000002318460C37BD465DF8047B704780B45F
:101C000083B000AF7860012318460C37BD465DF8FD
:101C1000047B704780B485B000AFF860B9607A602B
:101C2000002318461437BD465DF8047B704700005A
:101C300080B586B000AF7860144A154BD31A7B612B
:101C40007B693B61134B1B68002B02D1114B124A7D
:101C50001A60104B1A687B6813443A699A4207D29B
:101C600003F0B8FA03460C221A604FF0FF3309E084
:101C7000084B1B68FB60074B1A687B681344054AD6
:101C80001360FB6818461837BD4680BD000002206F
:101C900000040000D40600202808002080B400AF13
:101CA000064BD3F88830054A43F47003C2F88830F5
:101CB00000BFBD465DF8047B704700BF00ED00E04B
:101CC000DFF834D00D480E490E4A002302E0D45804
:101CD000C4500433C4188C42F9D30B4A0B4C002374
:101CE00001E013600432A242FBD3FFF7D7FF03F0F9
:101CF00077FAFFF7D7F870470000022000000020B5
:101D0000D401002074810008D4010020280800209C
:101D1000FEE7000080B500AF0E4B1B680D4A43F490
:101D2000007313600B4B1B680A4A43F48063136013
:101D3000084B1B68074A43F480731360032000F0CC
:101D40004FF90F2000F008F8FFF7D8FD00231846E0
:101D500080BD00BF003C024080B582B000AF78601B
:101D6000124B1A68124B1B7819464FF47A73B3FB67
:101D7000F1F3B2FBF3F3184600F067F90346002BCA
:101D800001D001230EE07B680F2B0AD8002279686E
:101D90004FF0FF3000F02FF9064A7B6813600023F4
:101DA00000E0012318460837BD4680BD0000002032
:101DB000080000200400002080B400AF064B1B7810
:101DC0001A46064B1B681344044A136000BFBD4605
:101DD0005DF8047B704700BF08000020D806002093
:101DE00080B400AF034B1B681846BD465DF8047B0A
:101DF000704700BFD806002080B584B000AF78607F
:101E0000FFF7EEFFB8607B68FB60FB68B3F1FF3F54
:101E100005D00A4B1B781A46FB681344FB6000BFD1
:101E2000FFF7DEFF0246BB68D31AFA689A42F7D87A
:101E300000BF00BF1037BD4680BD00BF08000020B6
:101E400080B485B000AF78607B6803F00703FB6067
:101E50000C4BDB68BB60BA684FF6FF031340BB60F6
:101E6000FB681A02BB68134343F0BF6343F40033BB
:101E7000BB60044ABB68D36000BF1437BD465DF841
:101E8000047B704700ED00E080B400AF044BDB68DA
:101E90001B0A03F007031846BD465DF8047B704734
:101EA00000ED00E080B483B000AF0346FB7197F90A
:101EB0000730002B0BDBFB7903F01F02074997F972
:101EC00007305B09012000FA02F241F8232000BF2D
:101ED0000C37BD465DF8047B704700BF00E100E0B1
:101EE00080B483B000AF03463960FB7197F90730C7
:101EF000002B0ADB3B68DAB20C4997F90730120174
:101F0000D2B20B4483F800230AE03B68DAB20849F6
:101F1000FB7903F00F03043B1201D2B20B441A7693
:101F200000BF0C37BD465DF8047B704700E100E060
:101F300000ED00E080B489B000AFF860B9607A606D
:101F4000FB6803F00703FB61FB69C3F10703042B84
:101F500028BF0423BB61FB690433062B02D9FB694C
:101F6000033B00E000237B614FF0FF32BB6902FAC4
:101F700003F3DA43BB681A407B699A404FF0FF31A4
:101F80007B6901FA03F3D9437B680B40134318467E
:101F90002437BD465DF8047B7047000080B582B0F1
:101FA00000AF78607B68013BB3F1807F01D30123F0
:101FB0000FE00A4A7B68013B53600F214FF0FF306E
:101FC000FFF78EFF054B00229A60044B07221A6030
:101FD000002318460837BD4680BD00BF10E000E072
:101FE00080B582B000AF78607868FFF729FF00BF46
:101FF0000837BD4680BD80B586B000AF0346B960E6
:102000007A60FB7300237B61FFF73EFF78617A689B
:10201000B9687869FFF78EFF024697F90F301146CD
:102020001846FFF75DFF00BF1837BD4680BD80B57D
:1020300082B000AF0346FB7197F907301846FFF7EF
:1020400031FF00BF0837BD4680BD80B582B000AF0C
:1020500078607868FFF7A2FF034618460837BD4648
:1020600080BD000080B489B000AF78603960002383
:102070007B6100233B610023BB610023FB616BE1BB
:102080000122FB6902FA03F37B613B681B687A69F2
:1020900013403B613A697B699A4240F05A813B6840
:1020A0005B6803F00303012B05D03B685B6803F01A
:1020B0000303022B30D17B689B68BB61FB695B002B
:1020C000032202FA03F3DB43BA691340BB613B68A6
:1020D000DA68FB695B0002FA03F3BA691343BB6178
:1020E0007B68BA699A607B685B68BB610122FB69A7
:1020F00002FA03F3DB43BA691340BB613B685B68D8
:102100001B0903F00102FB6902FA03F3BA691343E6
:10211000BB617B68BA695A603B685B6803F0030384
:10212000032B17D07B68DB68BB61FB695B00032274
:1021300002FA03F3DB43BA691340BB613B689A6858
:10214000FB695B0002FA03F3BA691343BB617B6866
:10215000BA69DA603B685B6803F00303022B23D1A2
:10216000FB69DA087B68083253F82230BB61FB69EF
:1021700003F007039B000F2202FA03F3DB43BA6963
:102180001340BB613B681A69FB6903F007039B00BE
:1021900002FA03F3BA691343BB61FB69DA087B688F
:1021A0000832B96943F822107B681B68BB61FB6980
:1021B0005B00032202FA03F3DB43BA691340BB61FD
:1021C0003B685B6803F00302FB695B0002FA03F300
:1021D000BA691343BB617B68BA691A603B685B6884
:1021E00003F44033002B00F0B4800023FB60604B0D
:1021F0005B6C5F4A43F4804353645D4B5B6C03F458
:102200008043FB60FB685B4AFB699B08023352F822
:102210002330BB61FB6903F003039B000F2202FA2A
:1022200003F3DB43BA691340BB617B68524A9342B4
:102230002BD07B68514A934225D07B68504A934209
:102240001FD07B684F4A934219D07B684E4A934215
:1022500013D07B684D4A93420DD07B684C4A934221
:1022600007D07B684B4A934201D107230EE0082335
:102270000CE006230AE0052308E0042306E003231C
:1022800004E0022302E0012300E00023FA6902F0E7
:10229000030292009340BA691343BB613549FB695D
:1022A0009B080233BA6941F823203B4B9B68BB6112
:1022B0003B69DB43BA691340BB613B685B6803F46D
:1022C0008013002B03D0BA693B691343BB61324AC8
:1022D000BB699360304BDB68BB613B69DB43BA6928
:1022E0001340BB613B685B6803F40013002B03D011
:1022F000BA693B691343BB61274ABB69D360264B6C
:102300005B68BB613B69DB43BA691340BB613B68F7
:102310005B6803F40033002B03D0BA693B691343B5
:10232000BB611D4ABB6953601B4B1B68BB613B69AA
:10233000DB43BA691340BB613B685B6803F48033DD
:10234000002B03D0BA693B691343BB61124ABB69D6
:102350001360FB690133FB61FB690F2B7FF690AEC5
:1023600000BF00BF2437BD465DF8047B704700BF47
:1023700000380240003801400000024000040240E2
:1023800000080240000C024000100240001402400D
:1023900000180240001C0240003C014080B483B0A1
:1023A00000AF78600B467B8013467B707B78002BF8
:1023B00003D07A887B689A6103E07B881A047B6883
:1023C0009A6100BF0C37BD465DF8047B704780B44E
:1023D00085B000AF78600B467B807B685B69FB60F3
:1023E0007A88FB6813401A04FB68D9437B880B404A
:1023F0001A437B689A6100BF1437BD465DF8047BC1
:102400007047000080B483B000AF064B01221A6011
:10241000054B1B687B607B6800BF0C37BD465DF8D1
:10242000047B704720000E420070004080B483B0EF
:1024300000AF064B00221A60054B1B687B607B686F
:1024400000BF0C37BD465DF8047B704720000E428C
:102450000070004080B586B000AF78607B68002BCC
:1024600001D1012367E27B681B6803F00103002BA5
:1024700075D0884B9B6803F00C03042B0CD0854B64
:102480009B6803F00C03082B12D1824B5B6803F4AA
:102490008003B3F5800F0BD17E4B1B6803F4003330
:1024A000002B5BD07B685B68002B57D1012342E295
:1024B0007B685B68B3F5803F06D1764B1B68754A35
:1024C00043F4803313601DE07B685B68B3F5A02F95
:1024D0000CD1704B1B686F4A43F4802313606D4B23
:1024E0001B686C4A43F4803313600BE0694B1B6834
:1024F000684A23F480331360664B1B68654A23F4F3
:10250000802313607B685B68002B13D0FFF768FCA7
:10251000386108E0FFF764FC02463B69D31A642B7C
:1025200001D9032307E25B4B1B6803F40033002B44
:10253000F0D014E0FFF754FC386108E0FFF750FCDE
:1025400002463B69D31A642B01D90323F3E1514BB3
:102550001B6803F40033002BF0D100E000BF7B6860
:102560001B6803F00203002B63D04A4B9B6803F007
:102570000C03002B0BD0474B9B6803F00C03082B7C
:102580001CD1444B5B6803F48003002B16D1414BF4
:102590001B6803F00203002B05D07B68DB68012B6E
:1025A00001D00123C7E13B4B1B6823F0F8027B6895
:1025B0001B69DB00374913430B603AE07B68DB683B
:1025C000002B20D0344B01221A60FFF709FC386140
:1025D00008E0FFF705FC02463B69D31A022B01D93C
:1025E0000323A8E12B4B1B6803F00203002BF0D060
:1025F000284B1B6823F0F8027B681B69DB00254928
:1026000013430B6015E0244B00221A60FFF7E8FB30
:10261000386108E0FFF7E4FB02463B69D31A022B5E
:1026200001D9032387E11B4B1B6803F00203002B36
:10263000F0D17B681B6803F00803002B36D07B6861
:102640005B69002B16D0154B01221A60FFF7C8FBFF
:10265000386108E0FFF7C4FB02463B69D31A022B3E
:1026600001D9032367E10B4B5B6F03F00203002BDF
:10267000F0D01BE0094B00221A60FFF7B1FB386174
:102680000EE0FFF7ADFB02463B69D31A022B07D9D8
:10269000032350E10038024000004742800E4742C9
:1026A000884B5B6F03F00203002BEAD17B681B6849
:1026B00003F00403002B00F097800023FB75814B8F
:1026C0001B6C03F08053002B0FD10023BB607D4BAC
:1026D0001B6C7C4A43F0805313647A4B1B6C03F0F1
:1026E0008053BB60BB680123FB75774B1B6803F409
:1026F0008073002B18D1744B1B68734A43F48073AA
:102700001360FFF76DFB386108E0FFF769FB0246D5
:102710003B69D31A022B01D903230CE16A4B1B68D6
:1027200003F48073002BF0D07B689B68012B06D1EB
:10273000644B1B6F634A43F0010313671CE07B6823
:102740009B68052B0CD15F4B1B6F5E4A43F0040363
:1027500013675C4B1B6F5B4A43F0010313670BE08D
:10276000584B1B6F574A23F001031367554B1B6FE0
:10277000544A23F0040313677B689B68002B15D031
:10278000FFF72EFB38610AE0FFF72AFB02463B69A0
:10279000D31A41F28832934201D90323CBE0494B4B
:1027A0001B6F03F00203002BEED014E0FFF718FBC1
:1027B00038610AE0FFF714FB02463B69D31A41F285
:1027C0008832934201D90323B5E03E4B1B6F03F0DF
:1027D0000203002BEED1FB7D012B05D1394B1B6C85
:1027E000384A23F0805313647B689B69002B00F008
:1027F000A180344B9B6803F00C03082B5CD07B68F2
:102800009B69022B41D1314B00221A60FFF7E8FA95
:10281000386108E0FFF7E4FA02463B69D31A022B5D
:1028200001D9032387E0274B1B6803F00073002BBB
:10283000F0D17B68DA697B681B6A1A437B685B6A44
:102840009B011A437B689B6A5B08013B1B041A438C
:102850007B68DB6A1B061B4913434B601B4B012241
:102860001A60FFF7BDFA386108E0FFF7B9FA0246CF
:102870003B69D31A022B01D903235CE0114B1B687F
:1028800003F00073002BF0D054E0104B00221A60CC
:10289000FFF7A6FA386108E0FFF7A2FA02463B69A3
:1028A000D31A022B01D9032345E0064B1B6803F022
:1028B0000073002BF0D13DE07B689B69012B07D1B1
:1028C000012338E0003802400070004060004742B9
:1028D0001B4B5B68FB607B689B69012B28D0FB6806
:1028E00003F480027B68DB699A4221D1FB6803F024
:1028F0003F027B681B6A9A421AD1FA6847F6C07396
:1029000013407A68526A9201934211D1FB6803F432
:1029100040327B689B6A5B08013B1B049A4207D1EB
:10292000FB6803F070627B68DB6A1B069A4201D089
:10293000012300E0002318461837BD4680BD00BFC4
:102940000038024080B584B000AF786039607B68A1
:10295000002B01D10123CCE0684B1B6803F0070377
:102960003A689A420CD9654B3A68D2B21A70634BF6
:102970001B6803F007033A689A4201D00123B8E0CC
:102980007B681B6803F00203002B20D07B681B6868
:1029900003F00403002B05D0594B9B68584A43F4BD
:1029A000E05393607B681B6803F00803002B05D09D
:1029B000534B9B68524A43F460439360504B9B686F
:1029C00023F0F0027B689B684D4913438B607B6862
:1029D0001B6803F00103002B44D07B685B68012B6C
:1029E00007D1474B1B6803F40033002B19D1012397
:1029F0007FE07B685B68022B03D07B685B68032BFE
:102A000007D13F4B1B6803F00073002B09D1012352
:102A10006FE03B4B1B6803F00203002B01D1012345
:102A200067E0374B9B6823F003027B685B6834499F
:102A300013438B60FFF7D4F9F8600AE0FFF7D0F991
:102A40000246FB68D31A41F28832934201D903232C
:102A50004FE02B4B9B6803F00C027B685B689B008C
:102A60009A42EBD1254B1B6803F007033A689A4260
:102A70000CD2224B3A68D2B21A70204B1B6803F07A
:102A800007033A689A4201D0012332E07B681B6851
:102A900003F00403002B08D0194B9B6823F4E05289
:102AA0007B68DB68164913438B607B681B6803F007
:102AB0000803002B09D0124B9B6823F460427B680B
:102AC0001B69DB000E4913438B6000F021F80246BE
:102AD0000B4B9B681B0903F00F030A49CB5C22FADE
:102AE00003F3094A1360094B1B681846FFF734F9D2
:102AF000002318461037BD4680BD00BF003C024091
:102B000000380240DC7D00080000002004000020A6
:102B10002DE9B04F90B000AF00237B630023FB632F
:102B200000233B630023BB63594B9B6803F00C03FA
:102B3000082B0DD0082B00F2A180002B02D0042B13
:102B400003D09BE0534BBB639BE0534BBB6398E0CC
:102B50004F4B5B6803F03F037B634D4B5B6803F4B3
:102B60008003002B28D04A4B5B689B0900223B6204
:102B70007A623B6AC3F308000021474B03FB01F272
:102B8000002300FB03F31344434AA0FB0212FA6242
:102B90000A46BA62FA6A1344FB627B6B0022BB618D
:102BA000FA61D7E90623D7E90A01FDF7FDFF0246DE
:102BB0000B461346FB6353E0354B5B689B090022D1
:102BC0003B617A613B69C3F3080A4FF0000B524640
:102BD0005B464FF000004FF00001590141EAD2611D
:102BE000500102460B46B2EB0A0863EB0B094FF0AB
:102BF00000024FF000034FEA891343EA98634FEA5B
:102C00008812B2EB080463EB09054FF000024FF0A5
:102C10000003EB0043EA5473E20014461D4614EB34
:102C20000A033B6045EB0B037B604FF000024FF063
:102C30000003D7E9004529468B02214643EA915318
:102C400021468A02104619467B6B0022BB60FA605F
:102C5000D7E90223FDF7A8FF02460B461346FB63A4
:102C60000B4B5B681B0C03F0030301335B003B63FE
:102C7000FA6B3B6BB2FBF3F3BB6302E0054BBB6348
:102C800000BFBB6B18464037BD46BDE8B08F00BFE4
:102C9000003802400024F40040787D0180B400AF89
:102CA000034B1B681846BD465DF8047B704700BFA8
:102CB0000000002080B500AFFFF7F0FF0246054B93
:102CC0009B689B0A03F007030349CB5C22FA03F3DA
:102CD000184680BD00380240EC7D000880B500AF8A
:102CE000FFF7DCFF0246054B9B685B0B03F0070315
:102CF0000349CB5C22FA03F3184680BD003802403A
:102D0000EC7D000880B582B000AF78607B68002B56
:102D100001D1012341E07B6893F83D30DBB2002B09
:102D200006D17B68002283F83C207868FEF70EFE0F
:102D30007B68022283F83D207B681A687B68043335
:102D40001946104600F09EFD7B68012283F846205C
:102D50007B68012283F83E207B68012283F83F20B4
:102D60007B68012283F840207B68012283F84120A0
:102D70007B68012283F842207B68012283F843208C
:102D80007B68012283F844207B68012283F8452078
:102D90007B68012283F83D20002318460837BD4692
:102DA00080BD000080B485B000AF78607B6893F888
:102DB0003D30DBB2012B01D0012346E07B680222CB
:102DC00083F83D207B681B68234A934222D07B68AE
:102DD0001B68B3F1804F1DD07B681B681F4A93426C
:102DE00018D07B681B681E4A934213D07B681B680F
:102DF0001C4A93420ED07B681B681B4A934209D041
:102E00007B681B68194A934204D07B681B68184A88
:102E1000934211D17B681B689B6803F00703FB603A
:102E2000FB68062B10D07B681B681A687B681B68E0
:102E300042F001021A6007E07B681B681A687B6831
:102E40001B6842F001021A60002318461437BD4681
:102E50005DF8047B704700BF0000014000040040A3
:102E600000080040000C0040000401400040014008
:102E70000018004080B582B000AF78607B68002BFE
:102E800001D1012341E07B6893F83D30DBB2002B98
:102E900006D17B68002283F83C20786800F039F87E
:102EA0007B68022283F83D207B681A687B680433C4
:102EB0001946104600F0E6FC7B68012283F84620A4
:102EC0007B68012283F83E207B68012283F83F2043
:102ED0007B68012283F840207B68012283F841202F
:102EE0007B68012283F842207B68012283F843201B
:102EF0007B68012283F844207B68012283F8452007
:102F00007B68012283F83D20002318460837BD4620
:102F100080BD80B483B000AF786000BF0C37BD4681
:102F20005DF8047B7047000080B584B000AF786026
:102F300039600023FB733B68002B04D17B6893F856
:102F40003E30DBB213E03B68042B04D17B6893F87E
:102F50003F30DBB20BE03B68082B04D17B6893F871
:102F60004030DBB203E07B6893F84130DBB2BB73E7
:102F70003B68002B04D17B6893F84230DBB213E04E
:102F80003B68042B04D17B6893F84330DBB20BE041
:102F90003B68082B04D17B6893F84430DBB203E034
:102FA0007B6893F84530DBB27B73BB7B012B02D18E
:102FB0007B7B012B01D00123CCE03B68002B04D1AB
:102FC0007B68022283F83E2013E03B68042B04D187
:102FD0007B68022283F83F200BE03B68082B04D17A
:102FE0007B68022283F8402003E07B68022283F89A
:102FF00041203B68002B04D17B68022283F84220E9
:1030000013E03B68042B04D17B68022283F8432041
:103010000BE03B68082B04D17B68022283F8442034
:1030200003E07B68022283F845203B680C2B41D8E3
:1030300001A252F823F000BF6D300008B53000083F
:10304000B5300008B53000087F300008B530000802
:10305000B5300008B530000891300008B5300008E0
:10306000B5300008B5300008A33000087B681B6845
:10307000DA687B681B6842F00202DA601DE07B6858
:103080001B68DA687B681B6842F00402DA6014E0AF
:103090007B681B68DA687B681B6842F00802DA60AC
:1030A0000BE07B681B68DA687B681B6842F01002E3
:1030B000DA6002E00123FB7300BFFB7B002B48D1E9
:1030C0007B681B6801223968184600F03FFE7B6868
:1030D0001B68224A934222D07B681B68B3F1804F61
:1030E0001DD07B681B681E4A934218D07B681B6802
:1030F0001C4A934213D07B681B681B4A93420ED034
:103100007B681B68194A934209D07B681B68184A80
:10311000934204D07B681B68164A934211D17B68A6
:103120001B689B6803F00703BB60BB68062B10D0CD
:103130007B681B681A687B681B6842F001021A6092
:1031400007E07B681B681A687B681B6842F0010215
:103150001A60FB7B18461037BD4680BD0000014059
:103160000004004000080040000C00400004014042
:10317000004001400018004080B584B000AF786086
:1031800039600023FB733B680C2B41D801A252F835
:1031900023F000BFC93100081132000811320008C5
:1031A00011320008DB31000811320008113200082A
:1031B00011320008ED310008113200081132000808
:1031C00011320008FF3100087B681B68DA687B68F1
:1031D0001B6822F00202DA601DE07B681B68DA6877
:1031E0007B681B6822F00402DA6014E07B681B68CD
:1031F000DA687B681B6822F00802DA600BE07B6803
:103200001B68DA687B681B6822F01002DA6002E053
:103210000123FB7300BFFB7B002B56D17B681B682F
:1032200000223968184600F091FD7B681B681A6A15
:1032300041F211131340002B0FD17B681B681A6AEF
:1032400040F244431340002B07D17B681B681A6887
:103250007B681B6822F001021A603B68002B04D1D6
:103260007B68012283F83E2013E03B68042B04D1E5
:103270007B68012283F83F200BE03B68082B04D1D8
:103280007B68012283F8402003E07B68012283F8F9
:1032900041203B68002B04D17B68012283F8422047
:1032A00013E03B68042B04D17B68012283F84320A0
:1032B0000BE03B68082B04D17B68012283F8442093
:1032C00003E07B68012283F84520FB7B184610371A
:1032D000BD4680BD80B582B000AF78607B681B685A
:1032E0001B6903F00203022B22D17B681B68DB6899
:1032F00003F00203022B1BD17B681B686FF00202F4
:103300001A617B6801221A777B681B689B6903F04E
:103310000303002B03D07868FDF7D4FF05E078683D
:1033200000F092FA786800F099FA7B6800221A7728
:103330007B681B681B6903F00403042B22D17B68A4
:103340001B68DB6803F00403042B1BD17B681B683C
:103350006FF004021A617B6802221A777B681B688F
:103360009B6903F44073002B03D07868FDF7AAFF34
:1033700005E0786800F068FA786800F06FFA7B681A
:1033800000221A777B681B681B6903F00803082B6F
:1033900022D17B681B68DB6803F00803082B1BD174
:1033A0007B681B686FF008021A617B6804221A7739
:1033B0007B681B68DB6903F00303002B03D078688C
:1033C000FDF780FF05E0786800F03EFA786800F0CD
:1033D00045FA7B6800221A777B681B681B6903F03B
:1033E0001003102B22D17B681B68DB6803F01003ED
:1033F000102B1BD17B681B686FF010021A617B6871
:1034000008221A777B681B68DB6903F44073002B82
:1034100003D07868FDF756FF05E0786800F014FAED
:10342000786800F01BFA7B6800221A777B681B68BB
:103430001B6903F00103012B0ED17B681B68DB685D
:1034400003F00103012B07D17B681B686FF00102B9
:103450001A61786800F0EEF97B681B681B6903F05D
:103460008003802B0ED17B681B68DB6803F0800330
:10347000802B07D17B681B686FF080021A61786827
:1034800000F010FD7B681B681B6903F04003402BB4
:103490000ED17B681B68DB6803F04003402B07D12B
:1034A0007B681B686FF040021A61786800F0E0F9F1
:1034B0007B681B681B6903F02003202B0ED17B68FF
:1034C0001B68DB6803F02003202B07D17B681B6897
:1034D0006FF020021A61786800F0DAFC00BF08374C
:1034E000BD4680BD80B586B000AFF860B9607A6037
:1034F0000023FB75FB6893F83C30012B01D10223BC
:1035000088E0FB68012283F83C207B68002B1BD1FC
:10351000FB681868BB681968BB685A68BB68DB68D9
:1035200000F050FAFB681B689A69FB681B6822F080
:103530000C029A61FB681B689969BB689A68FB6812
:103540001B680A439A6160E07B68042B1CD1FB680E
:103550001868BB681968BB685A68BB68DB6800F00C
:10356000D4FAFB681B689A69FB681B6822F4406206
:103570009A61FB681B689969BB689B681A02FB68C3
:103580001B680A439A6140E07B68082B1BD1FB68EB
:103590001868BB681968BB685A68BB68DB6800F0CC
:1035A00021FBFB681B68DA69FB681B6822F00C02D0
:1035B000DA61FB681B68D969BB689A68FB681B689D
:1035C0000A43DA6121E07B680C2B1CD1FB68186888
:1035D000BB681968BB685A68BB68DB6800F03EFBD3
:1035E000FB681B68DA69FB681B6822F44062DA61D9
:1035F000FB681B68D969BB689B681A02FB681B687B
:103600000A43DA6101E00123FB75FB68002283F8BD
:103610003C20FB7D18461837BD4680BD80B584B080
:1036200000AF786039600023FB737B6893F83C300F
:10363000012B01D10223B4E07B68012283F83C20F6
:103640007B68022283F83D207B681B689B68BB6017
:10365000BB6823F07703BB60BB6823F47F43BB6088
:103660007B681B68BA689A603B681B68B3F5005FAB
:103670003ED0B3F5005F00F28780B3F5805F00F0C5
:103680008680B3F5805F7FD8702B1AD0702B7BD8E3
:10369000602B50D0602B77D8502B3CD0502B73D858
:1036A000402B58D0402B6FD8302B64D0302B6BD8A8
:1036B000202B60D0202B67D8002B5CD0102B5AD049
:1036C00062E07B6818683B6899683B685A683B68A9
:1036D000DB6800F01BFB7B681B689B68BB60BB68FA
:1036E00043F07703BB607B681B68BA689A604FE061
:1036F0007B6818683B6899683B685A683B68DB6878
:1037000000F004FB7B681B689A687B681B6842F4C6
:1037100080429A603CE07B6818683B6859683B6867
:10372000DB681A4600F0C2F97B681B685021184616
:1037300000F0D1FA2CE07B6818683B6859683B6858
:10374000DB681A4600F01EFA7B681B686021184689
:1037500000F0C1FA1CE07B6818683B6859683B6858
:10376000DB681A4600F0A2F97B681B684021184606
:1037700000F0B1FA0CE07B681A683B681B681946D8
:10378000104600F0A8FA03E00123FB7300E000BF3D
:103790007B68012283F83D207B68002283F83C206F
:1037A000FB7B18461037BD4680BD000080B485B055
:1037B00000AF786039600023FB603B680C2B31D888
:1037C00001A252F823F000BFFD3700082538000899
:1037D0002538000825380008073800082538000873
:1037E0002538000825380008113800082538000859
:1037F00025380008253800081B3800087B681B683E
:103800005B6BFB600FE07B681B689B6BFB600AE0F7
:103810007B681B68DB6BFB6005E07B681B681B6CCF
:10382000FB6000E000BFFB6818461437BD465DF83A
:10383000047B704780B483B000AF786000BF0C3762
:10384000BD465DF8047B704780B483B000AF7860FC
:1038500000BF0C37BD465DF8047B704780B483B071
:1038600000AF786000BF0C37BD465DF8047B704741
:1038700080B483B000AF786000BF0C37BD465DF800
:10388000047B704780B485B000AF786039607B6896
:103890001B68FB607B68404A934213D07B68B3F19E
:1038A000804F0FD07B683D4A93420BD07B683C4AE7
:1038B000934207D07B683B4A934203D07B683A4AE5
:1038C000934208D1FB6823F07003FB603B685B68A0
:1038D000FA681343FB607B682F4A93422BD07B68C6
:1038E000B3F1804F27D07B682C4A934223D07B686A
:1038F0002B4A93421FD07B682A4A93421BD07B6895
:10390000294A934217D07B68284A934213D07B6898
:10391000274A93420FD07B68264A93420BD07B689C
:10392000254A934207D07B68244A934203D07B68A0
:10393000234A934208D1FB6823F44073FB603B6841
:10394000DB68FA681343FB60FB6823F080023B6886
:103950005B691343FB607B68FA681A603B689A688E
:103960007B68DA623B681A687B689A627B680A4AFD
:10397000934203D07B680C4A934203D13B681A6997
:103980007B681A637B6801225A6100BF1437BD4609
:103990005DF8047B704700BF000001400004004058
:1039A00000080040000C00400004014000400140BD
:1039B000004401400048014000180040001C004045
:1039C0000020004080B487B000AFF860B9607A6032
:1039D0003B60FB681B6A23F00102FB681A62FB680C
:1039E0009B697B61FB681B6A3B61FB68284A9342C9
:1039F0001BD0FB68B3F1804F17D0FB68254A934278
:103A000013D0FB68244A93420FD0FB68234A9342A9
:103A10000BD0FB68224A934207D0FB68214A9342AD
:103A200003D0FB68204A934201D1012300E0002328
:103A3000002B08D07B6923F003037B617A697B68E4
:103A400013437B6103E07B6943F001037B617B6986
:103A500023F0F0037B613B681B01DBB27A691343FF
:103A60007B613B6923F00A033B61BB6803F00A03F7
:103A70003A6913433B61FB687A699A61FB683A696A
:103A80001A6200BF1C37BD465DF8047B704700BF5B
:103A9000000001400004004000080040000C00400D
:103AA00000040140004001400018004080B487B08D
:103AB00000AFF860B9607A60FB681B6A7B61FB68E5
:103AC0001B6A23F00102FB681A62FB689B693B6179
:103AD0003B6923F0F0033B617B681B013A691343A8
:103AE0003B617B6923F00A037B617A69BB681343FE
:103AF0007B61FB683A699A61FB687A691A6200BF68
:103B00001C37BD465DF8047B704780B487B000AFBA
:103B1000F860B9607A603B60FB681B6A23F01002B2
:103B2000FB681A62FB689B697B61FB681B6A3B61EF
:103B30007B6923F440737B617B681B027A691343C2
:103B40007B617B6923F470437B613B681B039BB201
:103B50007A6913437B613B6923F0A0033B61BB6837
:103B60001B0103F0A0033A6913433B61FB687A69C8
:103B70009A61FB683A691A6200BF1C37BD465DF85E
:103B8000047B704780B487B000AFF860B9607A609A
:103B9000FB681B6A23F01002FB681A62FB689B69D2
:103BA0007B61FB681B6A3B617B6923F470437B612B
:103BB0007B681B037A6913437B613B6923F0A00395
:103BC0003B61BB681B013A6913433B61FB687A693F
:103BD0009A61FB683A691A6200BF1C37BD465DF8FE
:103BE000047B704780B487B000AFF860B9607A603A
:103BF0003B60FB681B6A23F48072FB681A62FB68F7
:103C0000DB697B61FB681B6A3B617B6923F0030313
:103C10007B617A697B6813437B617B6923F0F003E6
:103C20007B613B681B01DBB27A6913437B613B69B3
:103C300023F420633B61BB681B0203F420633A69F1
:103C400013433B61FB687A69DA61FB683A691A627F
:103C500000BF1C37BD465DF8047B704780B487B059
:103C600000AFF860B9607A603B60FB681B6A23F4C0
:103C70008052FB681A62FB68DB697B61FB681B6A28
:103C80003B617B6923F440737B617B681B027A692B
:103C900013437B617B6923F470437B613B681B03A7
:103CA0009BB27A6913437B613B6923F420433B61F8
:103CB000BB681B0303F420433A6913433B61FB6871
:103CC0007A69DA61FB683A691A6200BF1C37BD463F
:103CD0005DF8047B704780B485B000AF78603960D0
:103CE0007B689B68FB60FB6823F07003FB603A68AD
:103CF000FB68134343F00703FB607B68FA689A6034
:103D000000BF1437BD465DF8047B704780B487B0B0
:103D100000AFF860B9607A603B60FB689B687B61CC
:103D20007B6923F47F437B613B681A027B681A43FB
:103D3000BB6813437A6913437B61FB687A699A60B5
:103D400000BF1C37BD465DF8047B704780B487B068
:103D500000AFF860B9607A60BB6803F01F0301220E
:103D600002FA03F37B61FB681A6A7B69DB431A4042
:103D7000FB681A62FB681A6ABB6803F01F03796864
:103D800001FA03F31A43FB681A6200BF1C37BD46F1
:103D90005DF8047B7047000080B485B000AF7860A8
:103DA00039607B6893F83C30012B01D102235AE043
:103DB0007B68012283F83C207B68022283F83D2047
:103DC0007B681B685B68FB607B681B689B68BB60EB
:103DD000FB6823F07003FB603B681B68FA681343C1
:103DE000FB607B681B68FA685A607B681B68214A25
:103DF000934222D07B681B68B3F1804F1DD07B6853
:103E00001B681D4A934218D07B681B681B4A93426B
:103E100013D07B681B681A4A93420ED07B681B68DC
:103E2000184A934209D07B681B68174A934204D012
:103E30007B681B68154A93420CD1BB6823F0800352
:103E4000BB603B685B68BA681343BB607B681B68F8
:103E5000BA689A607B68012283F83D207B68002263
:103E600083F83C20002318461437BD465DF8047BD8
:103E7000704700BF000001400004004000080040FF
:103E8000000C0040000401400040014000180040C8
:103E900080B483B000AF786000BF0C37BD465DF8DA
:103EA000047B704780B483B000AF786000BF0C37EC
:103EB000BD465DF8047B704780B582B000AF786086
:103EC0007B68002B01D101233FE07B6893F83D30F4
:103ED000DBB2002B06D17B68002283F83C20786897
:103EE000FDF79AFD7B68242283F83D207B681B68E0
:103EF000DA687B681B6822F40052DA60786800F0A8
:103F000029F97B681B681A697B681B6822F4904258
:103F10001A617B681B685A697B681B6822F02A0259
:103F20005A617B681B68DA687B681B6842F4005240
:103F3000DA607B6800221A647B68202283F83D20C7
:103F40007B68202283F83E20002318460837BD46B0
:103F500080BD80B58AB002AFF860B9603B6013469F
:103F6000FB8000237B61FB6893F83D30DBB2202BA4
:103F70007CD1BB68002B02D0FB88002B01D1012330
:103F800075E0FB6893F83C30012B01D102236EE011
:103F9000FB68012283F83C20FB6800221A64FB685E
:103FA000212283F83D20FDF71BFF7861FB68FA882A
:103FB0009A84FB68FA88DA84FB689B68B3F5805FB3
:103FC00008D1FB681B69002B04D10023FB61BB688F
:103FD000BB6103E0BB68FB610023BB61FB6800229F
:103FE00083F83C202AE03B6800937B690022802113
:103FF000F86800F040F80346002B01D0032336E0B8
:10400000FB69002B0BD1BB691B881A46FB681B6838
:10401000C2F308025A60BB690233BB6107E0FB6967
:104020001A78FB681B685A60FB690133FB61FB6807
:10403000DB8C9BB2013B9AB2FB68DA84FB68DB8CB9
:104040009BB2002BCFD13B6800937B6900224021BB
:10405000F86800F010F80346002B01D0032306E0B7
:10406000FB68202283F83D20002300E0022318464D
:104070002037BD4680BD80B590B000AFF860B96014
:104080003B601346FB7150E0BB6CB3F1FF3F4CD07B
:10409000BB6C002B07D0FDF7A3FE02463B68D31A8A
:1040A000BA6C9A4241D2FB681B680C33BB62BB6A94
:1040B00053E8003F7B627B6A23F4D073FB63FB68A9
:1040C0001B680C33FA6B7A633B63396B7A6B41E89C
:1040D0000023FB62FB6A002BE5D1FB681B681433ED
:1040E0007B617B6953E8003F3B613B6923F001033F
:1040F000BB63FB681B681433BA6B3A62FB61F969F6
:104100003A6A41E80023BB61BB69002BE5D1FB683B
:10411000202283F83D20FB68202283F83E20FB68A4
:10412000002283F83C2003230FE0FB681B681A6819
:10413000BB681340BA689A420CBF01230023DBB26C
:104140001A46FB799A429FD0002318464037BD4655
:1041500080BD00002DE9B04FC0B000AFC7F8F4003B
:10416000D7F8F4301B681B6923F44050D7F8F430BB
:10417000D968D7F8F4301A6840EA01031361D7F818
:10418000F4309A68D7F8F4301B691A43D7F8F43042
:104190005B691A43D7F8F430DB691343C7F8F8308A
:1041A000D7F8F4301B68DB6823F4164121F00C01CA
:1041B000D7F8F4301A68D7F8F8300B43D360D7F843
:1041C000F4301B685B6923F44070D7F8F4309969C8
:1041D000D7F8F4301A6840EA01035361D7F8F43095
:1041E0001A688F4B9A4205D0D7F8F4301A688D4B75
:1041F0009A4204D1FEF772FDC7F8FC0003E0FEF717
:1042000059FDC7F8FC00D7F8F430DB69B3F5004F6F
:1042100040F00C81D7F8FC300022C7F8E830C7F82E
:10422000EC20D7E93A4522462B469118B9655B4107
:10423000FB65D7E91623214612EB0108294643EB1B
:1042400001094FF000024FF000034FEAC90343EAAF
:1042500058734FEAC80290469946234618EB030369
:10426000C7F8E0302B4649EB0303C7F8E430D7F832
:10427000F4305B680022C7F8D830C7F8DC20D7E9F3
:1042800036120B46DB183B65134642EB03037B6596
:10429000D7E91423D7E93801FCF786FC02460B4620
:1042A000614BA3FB02235B091C01D7F8FC30002201
:1042B000C7F8D030C7F8D420D7E9348942464B46F6
:1042C0009118B9645B41FB64D7E91223414612EBB4
:1042D000010A494643EB010B4FF000024FF0000387
:1042E0004FEACB0343EA5A734FEACA0292469B460F
:1042F00043461AEB0303C7F8C8304B464BEB0303A6
:10430000C7F8CC30D7F8F4305B680022C7F8C0306B
:10431000C7F8C420D7E930120B46DB183B641346BC
:1043200042EB03037B64D7E91023D7E93201FCF7A2
:104330003BFC02460B4611463B4BA3FB01235B09AA
:10434000642202FB03F3CB1ADB0003F13202364B8B
:10435000A3FB02235B095B0003F4F8731C44D7F84A
:10436000FC300022C7F8B830C7F8BC20D7E92E8946
:1043700042464B469118B9635B41FB63D7E90E2374
:1043800041465118396349464B417B634FF0000267
:104390004FF00003D7E90CAB5946CB00514643EA36
:1043A00051735146CA0010461946034642469B18AF
:1043B000C7F8B0304B460A4642EB0303C7F8B430A7
:1043C000D7F8F4305B680022C7F8A830C7F8AC20F3
:1043D000D7E92A120B46DB18BB62134642EB0303F4
:1043E000FB62D7E90A23D7E92C01FCF7DDFB024683
:1043F0000B460D4BA3FB02135B09642101FB03F386
:10440000D31ADB003233084AA2FB03235B0903F013
:104410000702D7F8F4301B6822449A6006E100BF17
:1044200000100140001401401F85EB51D7F8FC300B
:104430000022C7F8A030C7F8A420D7E9288942464F
:104440004B46911839625B417B62D7E908234146AC
:104450005418494643EB01054FF000024FF00003AA
:10446000EB0043EA5473E20014461D464346E3184A
:10447000C7F898304B4645EB0303C7F89C30D7F894
:10448000F4305B680022C7F89030C7F894204FF0F2
:1044900000024FF00003D7E9244529468B0021464E
:1044A00043EA917321468A00D7E92601FCF77CFB99
:1044B00002460B46604BA3FB02235B091C01D7F8A5
:1044C000FC300022C7F88830C7F88C20D7E9228951
:1044D00042464B469118B9615B41FB61D7E906231F
:1044E00041465118396149464B417B614FF000020A
:1044F0004FF00003D7E904AB5946CB00514643EADD
:1045000051735146CA0010461946034642469B184D
:10451000C7F880304B460A4642EB0303C7F88430A5
:10452000D7F8F4305B680022BB67FA674FF00002EF
:104530004FF00003D7E91E8949468B00414643EA04
:10454000917341468A00D7E92001FCF72DFB024612
:104550000B461146384BA3FB01235B09642202FB87
:1045600003F3CB1A1B013233334AA2FB03235B094B
:1045700003F0F0031C44D7F8FC3000223B677A6755
:10458000D7E91C8942464B469118B9605B41FB60F4
:10459000D7E9022341465118396049464B417B60B7
:1045A0004FF000024FF00003D7E900AB5946CB00B3
:1045B000514643EA51735146CA0010461946034614
:1045C00042469B18BB664B460A4642EB0303FB661A
:1045D000D7F8F4305B6800223B667A664FF0000241
:1045E0004FF00003D7E9188949468B00414643EA5A
:1045F000917341468A00D7E91A01FCF7D5FA0246C1
:104600000B460D4BA3FB02135B09642101FB03F373
:10461000D31A1B013233084AA2FB03235B0903F0C0
:104620000F02D7F8F4301B6822449A6000BF07F5E8
:104630008077BD46BDE8B08F1F85EB512DE9FF4760
:1046400055EC104B002D0E4619462B46BBBF05F10D
:1046500000431D4600232D230B700D9BDDF830A079
:10466000914623F02008BCBF22461446B8F1460FFD
:1046700005D0B8F1450F00D10136022100E0032139
:1046800003AB019302AB009345EC104B534632460B
:1046900000F056FEB8F1470F074602D119F0010F9E
:1046A00022D0B8F1460F07EB060910D13B78302B2A
:1046B0000AD10022002320462946FCF705FA18B942
:1046C000C6F10106CAF80060DAF800309944002209
:1046D000002320462946FCF7F7F908B1CDF80C90E5
:1046E0003022039B4B4507D3039B0E9ADB1B3846B6
:1046F000136004B0BDE8F087591C03911A70F0E70D
:10470000F7B503460029B8BF494203F8022BB4BFEE
:104710002D222B22092942702ADD0DF107021746AE
:104720000A26944691FBF6F506FB151430340CF876
:10473000014C0C46632C02F1FF322946F1DC30318A
:10474000ACF1020402F8011C411C2246BA420AD311
:104750000DF10902A2EB0C02BC4288BF00221344F7
:10476000181A03B0F0BD12F8015B01F8015FEDE724
:10477000302330318370C170031DF1E72DE9F04F14
:104780002DED028B8DB00C46DDF8608016461F467D
:10479000054600F0D5FCD0F800A05046FBF768FDB8
:1047A00000230A9323680593D8F8003094F818B0D2
:1047B000073323F0070303F10802C8F80020D3E908
:1047C000008929F000430793CDF8188008EE100AFD
:1047D000C4E91289DDE906019E4B4FF0FF32FCF778
:1047E000A5F988BBDDE906019A4B4FF0FF32FCF7D3
:1047F0007FF948BB0022002340464946FCF76EF98A
:1048000010B12D2384F84330934A944BBBF1470FEA
:1048100094BF9046984603232361059B23F004032D
:1048200023604FF00009009733460BAA2146284623
:1048300000F0DAF9013040F090804FF0FF300DB019
:10484000BDEC028BBDE8F08F42464B4640464946E0
:10485000FCF76CF940B14B46002BBCBF2D2384F80C
:1048600043307F4A7F4BD1E763680BF0DF0206924B
:104870005A1C3FD106236360059B616843F4806244
:10488000002303930AABCDE901B309AB49EC108BCC
:10489000009322600DF123032846FFF7CFFE069B0D
:1048A0000999472B804608D1C81C02DB63689942EE
:1048B00041DDABF102035FFA83FBBBF1650F20D84A
:1048C00001395A4604F150000991FFF719FF0A9A7D
:1048D0001318012A8146236102DC2268D20701D520
:1048E000013323619DF82330002B9CD02D2384F8C5
:1048F000433098E7069A472ABED1002BBCD101234A
:10490000B9E7BBF1660F18D1002963680BDD21619F
:1049100013B92268D00702D501330B442361A16586
:104920004FF00009DEE713B92268D20701D5023340
:10493000F4E70123F2E74FF0670B0A9B994205DB8E
:1049400023682161D807EAD54B1CE7E70029D4BFCB
:10495000C1F1020201221344E0E723685A0507D49B
:104960002369424631462846B84701302CD164E7D6
:10497000BBF1650F40F2E080D4E912010022002370
:10498000FCF7A2F8002834D0374A012331462846E4
:10499000B84701303FF451AFDDE909239A4202DB09
:1049A0002368D80710D518EE103A524631462846EB
:1049B000B84701303FF441AF4FF0000804F11A0945
:1049C0000A9B013B434509DC23689B0700F10781F3
:1049D000E0680B9B9842B8BF184630E701234A466F
:1049E00031462846B84701303FF427AF08F10108A7
:1049F000E6E7099B002B39DC1B4A01233146284698
:104A0000B84701303FF419AFDDE90932134302D151
:104A10002368D907D8D518EE103A524631462846B1
:104A2000B84701303FF409AF4FF0000904F11A0A0A
:104A3000099B5B424B4501DC0A9B92E701235246EE
:104A400031462846B84701303FF4F7AE09F1010975
:104A5000EEE700BFFFFFEF7FF47D0008F87D000860
:104A6000FC7D0008007E0008047E00080A9AA36D01
:104A70009A42A8BF1A46002A914637DC4FF0000B35
:104A800029EAE97904F11A02A36D0593A3EB09035E
:104A90005B4533DCDDE909239A423BDB2368DA0717
:104AA00038D4DDE90932A2EB0309059BD21A9145FE
:104AB000A8BF9146B9F1000F35DC4FF0000829EA94
:104AC000E97904F11A0ADDE909239B1AA3EB09032A
:104AD00043457FF779AF0123524631462846B84710
:104AE00001303FF4AAAE08F10108ECE71346314665
:104AF00042462846B8470130C0D19EE601233146E0
:104B000028460592B84701303FF497AE059A0BF15D
:104B1000010BB9E718EE103A524631462846B8471D
:104B20000130BED189E6059A4B46424431462846BB
:104B3000B8470130C1D180E60A9A012A01DCDB07BF
:104B40003AD50123424631462846B84701303FF462
:104B500074AE18EE103A524631462846B847013036
:104B60003FF46BAED4E9120100220023DDF828A047
:104B7000FBF7AAFFD8B90AF1FF3308F10102314669
:104B80002846B84701300ED157E601235246314638
:104B90002846B84701303FF450AE08F101080A9B9F
:104BA000013B4345F1DC4B4604F15002DAE64FF09D
:104BB000000804F11A0AF2E701234246DFE7012365
:104BC0004A4631462846B84701303FF436AE08F130
:104BD0000108E3680B995B1A4345F0DCF8E64FF0F7
:104BE000000804F11909F4E72DE9F0471646994643
:104BF0008A680B69DDF820809342B8BF13463360A2
:104C000091F8432007460C460AB10133336023680C
:104C1000990642BF336802333360256815F00605F4
:104C200006D104F1190AE36832689B1AAB4226DC0C
:104C300094F84320131E226818BF012392062BD438
:104C400004F1430249463846C04701301ED023686C
:104C5000226903F00603042B02BFE5683368ED1AEE
:104C6000A3680CBF25EAE57500259342C4BF9B1AD3
:104C7000ED1800261A34B5421AD1002008E00123AD
:104C8000524649463846C047013003D14FF0FF3005
:104C9000BDE8F0870135C6E7E1185A1C302081F8DD
:104CA0004300224494F8451082F843100233C7E7CA
:104CB0000123224649463846C0470130E6D0013636
:104CC000D9E700002DE9FF470F7E0C9D782F914614
:104CD00080460C469A4601F1430207D8622F0AD853
:104CE000002F00F0D480582F00F0C08004F142055E
:104CF00084F842703AE0A7F16303152BF6D801A1BE
:104D000051F823F05D4D0008714D0008ED4C00088E
:104D1000ED4C0008ED4C0008ED4C0008714D00080A
:104D2000ED4C0008ED4C0008ED4C0008ED4C00087F
:104D3000754E00089D4D00082F4E0008ED4C0008F0
:104D4000ED4C0008974E0008ED4C00089D4D000802
:104D5000ED4C0008ED4C0008374E00082B681A1D7A
:104D60001B682A6004F1420584F8423001239FE069
:104D700020682B68070603F10401296001D51E682D
:104D800003E04606FBD5B3F90060002E03DA2D23BD
:104D9000764284F843305A480A2312E02B68206890
:104DA000191D2960050601D51E6802E04106FBD5E4
:104DB0001E8853486F2F0CBF08230A23002184F854
:104DC00043106568A560002DA2BF216821F0040191
:104DD00021600EB9002D4BD01546B6FBF3F103FB55
:104DE0001167C75D05F8017D3746BB420E46F4D911
:104DF000082B0BD12368DE0708D523696168994227
:104E0000DEBF302305F8013C05F1FF35521B22615E
:104E1000CDF800A04B4603AA21464046FFF7E4FE2A
:104E200001304AD14FF0FF3004B0BDE8F08723686D
:104E300043F0200323603348782784F845702368C3
:104E400029681F0651F8046B02D45F0648BFB6B24A
:104E5000DF0748BF43F02003296048BF23601EB925
:104E6000236823F0200323601023A7E72448E4E706
:104E70001546BDE72B6826686169181D2860350650
:104E80001B6801D5196002E07006FBD5198000236C
:104E900023611546BCE72B681A1D2A601D686268ED
:104EA00000212846FBF794F908B1401B6060636855
:104EB0002361002384F84330AAE723692A46494640
:104EC0004046D0470130ADD023689B0713D4E0683B
:104ED000039B9842B8BF1846A6E7012332464946CD
:104EE0004046D04701309DD00135E36803995B1AF5
:104EF000AB42F2DCEBE7002504F11906F5E700BF51
:104F0000067E0008177E0008002310B50446C0E99D
:104F10000033C0E90433836081814366C2818361C9
:104F2000194608225C3000F002F9054B6362054B1C
:104F3000A362054BE362054B2462236310BD00BFEF
:104F4000A9500008CB500008035100082751000861
:104F5000024A0349034800F069B800BF0C00002072
:104F6000D96B00081800002041680C4B994210B51D
:104F7000044601D001F030FEA168094B994202D0ED
:104F8000204601F029FEE168064B994204D02046F4
:104F9000BDE8104001F020BE10BD00BFDC060020BF
:104FA00044070020AC07002010B50B4B0B4C0C4AFB
:104FB0001A60204600220421FFF7A6FF04F16800D2
:104FC00001220921FFF7A0FF04F1D0000222BDE871
:104FD00010401221FFF798BF14080020DC060020C3
:104FE000514F0008014800F01FB900BF1D08002004
:104FF000014800F01AB900BF1D08002010B5044692
:10500000FFF7F0FF236A1BB1BDE81040FFF7F0BFC8
:10501000044B2362044B1B68002BF5D1FFF7C4FF40
:10502000F2E700BF694F0008140800202DE9F8439B
:105030000746884614460026D4E90195B9F10109CE
:1050400005D52468002CF7D13046BDE8F883AB893C
:10505000012B07D9B5F90E30013303D02946384664
:10506000C04706436835E9E70EB400B59CB01DABF8
:10507000029006906FF00041094807910491094998
:1050800053F8042B05910068019302A901F020FC5C
:10509000029B00221A701CB05DF804EB03B070474D
:1050A000640000200802FFFF10B50C46B1F90E1095
:1050B00000F06CF80028ABBF636DA3891B1823F4C4
:1050C0008053ACBF6365A38110BD2DE9F0411F463D
:1050D0008B89DB0505460C46164605D5B1F90E1041
:1050E0000223002200F040F8A389B4F90E1023F443
:1050F0008053A38132463B462846BDE8F04100F08C
:1051000057B810B50C46B1F90E1000F02DF8431C3D
:10511000A38915BF606523F4805343F48053A381B2
:1051200018BFA38110BDB1F90E1000F00DB80244F4
:105130000346934200D1704703F8011BF9E70000D2
:10514000004870475801002038B5064D002304463A
:1051500008462B60FCF737FD431C02D12B6803B1D6
:10516000236038BD1808002038B5074D04460846AE
:10517000114600222A601A46FCF74CFD431C02D15E
:105180002B6803B1236038BD1808002038B5074DDF
:1051900004460846114600222A601A46FCF7DAFC4B
:1051A000431C02D12B6803B1236038BD18080020CE
:1051B00038B5074D04460846114600222A601A46B3
:1051C000FCF7E5FC431C02D12B6803B1236038BD1A
:1051D00018080020014B1868704700BF64000020C9
:1051E00070B50D4D0D4C641BA4100026A64209D1CC
:1051F0000B4D0C4C02F094F8641BA4100026A64240
:1052000005D170BD55F8043B98470136EEE755F8D7
:10521000043B98470136F2E76C8100086C81000876
:105220006C81000870810008704770472DE9F74FC6
:1052300003690C69A34207467EDB013C01F11408B7
:1052400000F1140505EB8403019358F8243055F858
:10525000242001339A424FEA840B08EB8409B2FB05
:10526000F3F631D34FF0000E4046AC46F24650F80C
:10527000042B93B206FB03E34FEA124E1A0C9BB2C7
:10528000AAEB0303DCF800A013FA8AF306FB0E2254
:105290000093009B4FEA124E92B2C2EB1A4202EB0D
:1052A0002342BDF80030814543EA02434CF8043BF9
:1052B0004FEA224ADBD255F80B302BB9019B043B55
:1052C0009D421A462CD33C61384601F0A7F90028CC
:1052D00022DB01362946002058F8042BD1F800C003
:1052E00093B2C31A120C13FA8CF3C2EB1C4202EBFA
:1052F00023429BB243EA0243C14541F8043B4FEAD3
:105300002240E9D255F8242005EB840322B9043B5E
:105310009D421A460AD33C61304603B0BDE8F08F87
:105320001268043B002ACED1013CC9E71268043B55
:10533000002AF0D1013CEBE70020EEE7000000007E
:105340002DE9F04F2DED048BC56993B08DED020B67
:1053500057EC106BDDF88080079104460A920D939C
:1053600075B9102000F02AFE0246E06120B9AE4B6C
:10537000EF21AE4801F090FCC0E901550560C56021
:10538000E369196851B15A684A60012393408B6000
:10539000204600F007FFE36900221A603B1EBBBFF6
:1053A00023F00043039300230122ACBFC8F8003070
:1053B000C8F800209E4BDDF80C8033EA08031BD1AF
:1053C0000D9A42F20F731360C8F31303334300F0D6
:1053D0009385219B63B9974B27E0974B0093083344
:1053E000219A1360009813B0BDEC048BBDE8F08FD8
:1053F000904B00930333F3E79DED027B002251ECC9
:10540000170BB0EE478AF0EE678A0023FBF75CFBD0
:10541000814660B10D9A01231360219B002B00F09F
:105420006885864B219A1360013B0093DAE710AA46
:1054300011A92046B0EE480AF0EE680A01F094F98E
:10544000C8F30A558246002D7FD018EE903AC3F378
:10545000130343F07F5351EC180B43F44013A5F2B0
:10546000FF35CDF8389019460022754BFAF70CFF3E
:1054700067A3D3E90023FBF7BFF867A3D3E90023B1
:10548000FAF704FF064628460F46FBF74BF864A3DD
:10549000D3E90023FBF7B0F802460B463046394605
:1054A000FAF7F4FE06460F46FBF756FB002283464A
:1054B000002330463946FBF711FB48B15846FBF74D
:1054C00031F832463B46FBF7FFFA08B90BF1FF3BD8
:1054D000BBF1160F57D85B4B03EBCB03D3E900238B
:1054E00051EC180BFBF7FAFA00284ED00BF1FF3BFA
:1054F00000230C93109B5B1B5A1E45BFC3F1010395
:10550000059300230023069254BF05930693BBF135
:10551000000F3CDB069BCDF82CB05B4406930023C8
:105520000893079B092B68D8052BC4BF043B07933E
:10553000079BA3F10203CCBF00250125032B00F23A
:105540008580DFE803F02E3B3958DDE910531D4418
:1055500005F23243202BC1BFC3F1400308FA03F820
:1055600005F2124326FA03F3D6BFC3F1200348EA3B
:10557000030006FA03F0FAF7C5FF0122A1F1F87360
:10558000013D0E926FE70123B3E70C90B2E7059B54
:10559000A3EB0B030593CBF10003089300230B93BC
:1055A000BFE7002309930A9B002B52DC01230193E0
:1055B00004931A460A920BE00123F3E700230993B0
:1055C0000A9B5B4401930133012B0493B8BF012371
:1055D000E0690021042202F114069E423DD9416097
:1055E000204600F09FFD0090002839D1164B02465E
:1055F00040F2AF11BDE60123E1E701250023079347
:1056000009954FF0FF330193049300221223D1E751
:1056100061436F63A787D23FB3C8608B288AC63FB8
:10562000FB799F501344D33F357E00084C7E000821
:105630000000F07F317E0008287E0008057E00080B
:105640000000F83F387F0008A47E0008012309937A
:10565000D7E70A9B01930493BAE701315200BAE7F6
:10566000E369009A1A60049B0E2B00F2A880002DBB
:1056700000F0A580BBF1000F38DDC04B0BF00F022E
:1056800003EBC2031BF4807FD3E900674FEA2B18BA
:1056900019D0BB4B51EC180BD3E90823FBF7D6F814
:1056A000CDE9020108F00F080325DFF8D492B8F124
:1056B000000F0AD1DDE9020132463B46FBF7C6F88E
:1056C000CDE902012BE00225EFE718F0010F08D029
:1056D00030463946D9E90023FAF78EFF01350646F0
:1056E0000F464FEA680809F10809E0E700F09F80DB
:1056F000CBF10006A14BA24F06F00F0203EBC20351
:10570000D3E9002351EC180BFAF776FFCDE902013B
:10571000361100230225002E7ED1002BD0D10C9B08
:10572000DDE90289002B00F08480964B0022404680
:105730004946FBF7D3F900287BD0049B002B78D097
:10574000019B002B39DD904B002240464946FAF779
:1057500053FFCDE90201019E0BF1FF370135DDE971
:1057600002892846FAF7DEFE42464B46FAF744FF26
:10577000864B0022FAF78AFDA1F15073CDE90201B0
:105780000393002E58D1824B002240464946FAF737
:105790007BFDDDE9022380468946FBF7BDF9002841
:1057A00040F09682DDE90221404601F1004349467E
:1057B000FBF794F9002840F089828DED028B119B54
:1057C000002BC0F24E81BBF10E0F00F34A816B4BF0
:1057D00003EBCB03D3E900890A9B002B80F2DC802A
:1057E000049B002B00F3D88040F06F82684B0022AE
:1057F00040464946FAF700FFDDE90223FBF782F94C
:10580000049E3746002840F04582009D312305F86C
:10581000013B0BF1010B41E2F20705D5D7E900236B
:10582000FAF7EAFE013501237610083773E70225FF
:1058300075E7049E5F4692E70099504B9DED027B11
:10584000314402910999B0EE479AF0EE679A03EB62
:10585000C60353E90223002944D04E490020FAF739
:10586000F5FF53EC192BFAF70FFD009D41EC190BD6
:1058700049464046FBF770F90646FAF753FE0246E2
:105880000B4640464946FAF7FFFC303605F8016BF7
:1058900053EC192B80468946FBF720F9002864D188
:1058A00042464B4637490020FAF7EEFC53EC192BE1
:1058B000FBF714F9002840F0B680029B9D423FF4AC
:1058C0007CAF314B51EC190B0022FAF795FE2E4BB1
:1058D00041EC190B002240464946FAF78DFE8046FE
:1058E0008946C5E751EC170BFAF786FE029B009D2F
:1058F0000F9341EC190B49464046FBF72DF906463C
:10590000FAF710FE303602460B4640464946FAF793
:10591000BBFC05F8016B029B9D42804689464FF017
:10592000000224D11B4B51EC190BFAF7AFFC0246D5
:105930000B4640464946FBF7EFF8002873D153EC7D
:10594000192B14490020FAF79FFC02460B464046EB
:105950004946FBF7C3F800283FF42FAF0F9D6B1E9D
:105960000F9315F8013C302BF8D0BB464AE0064BAC
:10597000FAF742FE80468946BDE700BF387F00083F
:10598000107F00080000F03F0000244000001C4091
:10599000000014400000E03FDDE90267009D424640
:1059A0004B4630463946FAF751FFFBF7D5F80190E0
:1059B000FAF7B8FD42464B46FAF71EFE02460B4682
:1059C00030463946FAF760FC019E049F303605F8F0
:1059D000016B009EAE1BB74202460B4634D1FAF76C
:1059E00055FC42464B4606460F46FBF795F8C8B9AC
:1059F00042464B4630463946FBF766F810B1019BEC
:105A0000DB070FD45146204600F0CCFB00230D9A53
:105A10002B700BF101031360219B002B3FF4E2ACD0
:105A20001D60DFE45F462B461D4613F8012D392A21
:105A300006D1009A9A42F7D10099302201370A70B4
:105A40001A7801321A7090E7A34B0022FAF7D4FDBE
:105A50000022002306460F46FBF736F800289ED0AA
:105A6000D0E7099A002A00F0CA80079A012A00F3B9
:105A7000AD800E9A002A00F0A58003F23343089E01
:105A8000059D059A1A440592069A01211A4420465A
:105A9000069200F03DFC074665B1069B002B09DD30
:105AA000AB42059AA8BF2B46D21A0592069AED1A68
:105AB000D31A0693089BF3B1099B002B00F0A38037
:105AC000002E10DD39463246204600F0E1FC5246F9
:105AD00001460746204600F031FC514680462046EC
